:020000040040BA
:10000000B82A4020A917400059184000591840004C
:1000100059184000591840005918400000000000CD
:10002000000000000000000000000000591840001F
:1000300059184000000000005918400059184000AD
:1000400059184000591840005918400059184000EC
:1000500059184000591840005918400059184000DC
:100060005918400000000000450D40005D0D4000A3
:10007000750D4000591840005918400059184000AB
:100080008D0D4000A50D4000591840005918400042
:10009000591840005918400059184000591840009C
:1000A000591840005918400059184000591840008C
:1000B000591840005918400059184000591840007C
:1000C000591840005918400059184000591840006C
:1000D00000000000591840000000000059184000BE
:1000E000591840005918400059184000591840004C
:1000F000591840005918400059184000591840003C
:10010000591840005918400059184000591840002B
:10011000591840000000000000000000000000002E
:10012000591840005918400059184000591840000B
:1001300059184000000000005918400059184000AC
:1001400010B5054C237833B9044B13B10448AFF311
:1001500000800123237010BDB8094020000000007A
:10016000CC7D40000C4B43B10C480D4910B5AFF3AA
:1001700000800C48036823B910BD0A48036833B9EE
:100180007047094B002BF7D0BDE810401847064BCD
:10019000002BF5D0184700BF00000000CC7D4000C8
:1001A000BC094020CC7D40000000000080B582B03A
:1001B00000AF78607B68072B31D801A252F823F09A
:1001C0001D024000E1014000E9014000F101400052
:1001D000F901400001024000090240001302400002
:1001E0000020114B98471AE001200F4B984716E06A
:1001F00000200E4B984712E010200C4B98470EE061
:1002000020200A4B98470AE03E210020084B9847DF
:1002100005E03E210120064B984700E000BF00BFEB
:100220000837BD4680BD00BFBD0E4000290F40000D
:10023000990F400080B582B000AF78607B68072BD3
:1002400026D801A252F823F0690240006D02400056
:100250006D0240007F0240007F0240007F024000AC
:100260007F0240007F024000012312E00B4B9847C1
:100270000346002B14BF01230023DBB209E0084B27
:1002800098470346002B14BF01230023DBB200E094
:10029000002318460837BD4680BD00BFF50E40005C
:1002A0001110400080B483B000AF78607B68072BEA
:1002B00025D801A252F823F0D9024000DF02400005
:1002C000E5024000EB024000EF024000F302400074
:1002D000F7024000FB0240004FF4FA4310E04FF4F5
:1002E00000430DE04FF400430AE0084B08E0084BE0
:1002F00006E0084B04E0074B02E0064B00E0002359
:1003000018460C37BD465DF8047B704700093D0078
:1003100000127A00001BB70080B582B000AF034620
:10032000FB7100BFFB791846054B9847034683F0E5
:100330000103DBB2002BF5D100BF0837BD4680BDFD
:100340003502400080B586B000AFF8607A603B604F
:100350000B46FB727B68002B07D13B68002B04D156
:10036000FB684FF470021A6019E0FB7A18460E4BD6
:10037000984702467B68B2FBF3F37B617B693A687E
:1003800002FB03F37B613B68013B1A04074B1340FC
:100390007A68D2B2134343F47C52FB681A6000BF00
:1003A0001837BD4680BD00BFA50240000000FF0712
:1003B00080B582B000AF786039603B68002B08D10F
:1003C000094B9847094A7B681B6843F000539362C6
:1003D00005E0064A7B681B6843F48033D36100BFA5
:1003E0000837BD4680BD00BF2D10400000060E40FE
:1003F00080B582B000AF78607B68002B03D1054BDD
:100400009847034602E0044B9847034618460837CE
:10041000BD4680BD491040006510400080B582B0E7
:1004200000AF0346FB71FB79033B042B08D8FB7933
:100430001846064B9847FB791846054B984700E04D
:1004400000BF00BF0837BD4680BD00BFAD01400002
:100450001903400080B582B000AF786000BF7868B3
:10046000044B98470346002BF9D000231846083761
:10047000BD4680BDF103400080B500AF0620054BAE
:100480009847024613469B0013449A0013441846AB
:1004900080BD00BFA502400080B500AF024B984769
:1004A0000346184680BD00BF7904400090B583B074
:1004B00000AF1348134B98470620134B9847381D3D
:1004C000192301220621114CA0473B1D002118468B
:1004D0000F4B984700200F4B984702200E4B984730
:1004E00000200E4B98470E4B98470E4B98470346FB
:1004F0001846044B984700BF0C37BD4690BD00BF5F
:1005000000A3E111C91940001D044000450340004B
:10051000B103400055044000BD0D4000390E4000BD
:10052000611840009904400080B586B000AFF860C3
:10053000B9607A6000237B61FB68002B12D04FF01A
:10054000FF3313E00B4B1B680B4A1268B968104667
:100550009847BB680133BB607B6901337B617B6873
:10056000013B7B607B68002BECDC7B69184618370D
:10057000BD4680BD800A4020880A402080B586B0F4
:1005800000AFF860B9607A6000237B61FB68012BE3
:100590001ED0FB68022B1BD0FB68032B18D04FF03A
:1005A000FF3319E00E4B1A680E4B1868BB68591CD4
:1005B000B9601B78194690470346002B02DA4FF0CA
:1005C000FF3309E07B6901337B617B68013B7B6022
:1005D0007B68002BE6D17B6918461837BD4680BD85
:1005E000840A4020880A402080B400AFBFF34F8FB8
:1005F000BFF36F8F094B0022C3F85022074A074B05
:100600005B6943F400335361BFF34F8FBFF36F8FC8
:1006100000BFBD465DF8047B704700BF00ED00E001
:1006200080B48BB000AF264BD3F88030FB61FB6900
:100630005B0BC3F30E037B62FB6903F00703043318
:10064000BB61FB69DB08C3F309037B617B69BB60AA
:10065000BB68B3FA83F37B607B68DBB203F01F03F4
:100660003B61BFF34F8F7B693B623A6A3B6902FA99
:1006700003F319467A6ABB6902FA03F30B43FB6082
:100680000F4AFB68C2F860323B6A5A1E3A62002B7E
:10069000EBD17B6A5A1E7A62002BE4D1BFF34F8FF5
:1006A000074A074B5B6943F480335361BFF34F8FB5
:1006B000BFF36F8F00BF2C37BD465DF8047B7047DA
:1006C00000ED00E080B582B000AF78607868034B41
:1006D000984700BF0837BD4680BD00BF811040006D
:1006E00080B500AF0A20084B98470B20064B98476F
:1006F0000C20054B98471020034B98471120024BC4
:10070000984700BF80BD00BFC506400080B489B0D7
:1007100000AF78607B68FB61FB69BB61BB695A090C
:10072000FB697B617B6903F01F03012101FA03F37D
:100730003A61FB603B69BB60BA68064B13445B02DD
:100740001A46FB68536000BF2437BD465DF8047B42
:10075000704700BF0707200080B48DB000AF7860FD
:1007600039607B68FB623B68BB62FB6A7B627B6AC9
:100770005A09FB6A3B623B6A03F01F03012101FA3D
:1007800003F3FA61BB61BB6A7B61FB693B613A6958
:10079000374B13445B02FB607B6903F00803002BBB
:1007A00003D0FB68BA695A6602E0FB68BA691A6648
:1007B0007B6903F01003002B04D0FB68BA69C3F80F
:1007C000942003E0FB68BA69C3F890207B6903F0CA
:1007D0002003002B03D0FB68BA691A6502E0FB68AE
:1007E000BA695A657B6903F0C003002B03D0FB682C
:1007F000BA691A6202E0FB68BA695A627B6903F05F
:100800008003002B04D0FB68BA69C3F8842003E09E
:10081000FB68BA69C3F880207B6903F00103002BF1
:1008200006D0FB681A6FBB691A43FB681A6706E0BB
:10083000FB681A6FBB69DB431A40FB681A677B6968
:1008400003F00203002B06D0FB685A6FBB691A4302
:10085000FB685A6706E0FB685A6FBB69DB431A40C6
:10086000FB685A6700BF3437BD465DF8047B7047AC
:100870000707200080B48DB000AF78600B46FB7096
:100880007B68FB62FB7887F82B30FB6A7B627B6AB4
:100890003B623B6A5B09FB61FA69174B13445B02DD
:1008A000BB6197F82B30012B09D1FB6A7B617B6917
:1008B00003F01F0301229A40BB691A610CE097F80C
:1008C0002B30002B08D1FB6A3B613B6903F01F030F
:1008D00001229A40BB695A61FB6AFB60FB6803F026
:1008E0001F0301229A40BB69C3F8A02000BF343720
:1008F000BD465DF8047B70470707200080B48BB0CD
:1009000000AF78600B46FB707B687B62FB7887F8F2
:1009100023307B6AFB61FB69BB61BB695B097B615F
:100920007A69104B13445B023B6197F82330002B2C
:1009300009D07B6AFB60FB6803F01F0301229A4029
:100940003B691A6308E07B6ABB60BB6803F01F0366
:1009500001229A403B695A6300BF2C37BD465DF8BF
:10096000047B70470707200080B48DB000AF78602B
:100970000B46FB707B68FB62FB7887F82B30FB6AC9
:100980007B627B6A5A09FB6A3B623B6A03F01F0386
:10099000012101FA03F3FA61BB6197F82B30FB7573
:1009A000FB693B613A69234B13445B02FB60FB7DAF
:1009B000013B032B2ED801A252F823F0F10940008D
:1009C000030A4000CD094000DF094000FB68BA6916
:1009D000C3F8C420FB68BA69C3F8D0201FE0FB68E5
:1009E000BA69C3F8C420FB68BA69C3F8D42016E01A
:1009F000FB68BA69C3F8C020FB68BA69C3F8D020A5
:100A00000DE0FB68BA69C3F8C020FB68BA69C3F897
:100A1000D42004E0FB68BA69C3F8B42003E0FB68A3
:100A2000BA69C3F8B02000BF3437BD465DF8047B17
:100A3000704700BF0707200080B400AFBFF34F8F9F
:100A4000BFF36F8F0C4A0C4BD3F8903223F00103A5
:100A5000C2F89032084A084BD3F8943223F00103CD
:100A6000C2F89432BFF34F8FBFF36F8F00BFBD4604
:100A70005DF8047B704700BF00ED00E080B500AF7B
:100A8000254B4FF400425A60244B9847244B98471B
:100A9000244B254A5A60234B244A5A60244B9847DA
:100AA000244B984701214820234B98470121482097
:100AB000224B984700210B201F4B984788210B2081
:100AC0001F4B984702210B201E4B984700211520F1
:100AD0001B4B984715201C4B98471C4A1B4BD3F8BF
:100AE000143143F01003C2F8143103212420144BB5
:100AF00098472420144B984700210320104B984717
:100B00000320114B9847002104200D4B98470420E7
:100B10000D4B984700BF80BD50180E40E9054000BE
:100B200021064000000C0E400C08005A0C07005A29
:100B3000390A4000E106400075084000FD08400009
:100B400059074000690940000D0740000080084037
:100B500080B487B000AFF860B9607A60FB687A68EB
:100B60005A64BB68B3F1C05F4AD0B3F1C05F08D824
:100B7000B3F1006F16D0B3F1805F2CD0002B69D099
:100B800064E0B3F1205F65D0B3F1205F03D8B3F127
:100B9000005F4AD05AE0B3F1405F5BD0B3F1605FD1
:100BA00058D053E0FB681B6F7B61FB681A6F7B6852
:100BB000D9437B690B401A40FB681A67FB685B6F7F
:100BC0007B61FB685A6F7B68D9437B690B401A4095
:100BD000FB685A673AE0FB681B6F7B617A687B6948
:100BE0001A43FB681A67FB685B6F7B61FB685A6F8F
:100BF0007B68D9437B690B401A40FB685A6725E044
:100C0000FB681B6F7B61FB681A6F7B68D9437B694C
:100C10000B401A40FB681A67FB685B6F7B617A6860
:100C20007B691A43FB685A6710E0FB681B6F7B61A6
:100C30007A687B691A43FB681A67FB685B6F7B61A4
:100C40007A687B691A43FB685A6700BFFB687A6859
:100C50005A6000E000BF1C37BD465DF8047B70475A
:100C600080B483B000AF78607B68DB6C18460C37CB
:100C7000BD465DF8047B704780B483B000AF7860F8
:100C80007B689B6C18460C37BD465DF8047B70474B
:100C900080B584B000AF786039607868264B98479B
:100CA000F8607868254B98470246FB681340FB6064
:100CB000FB68002B3CD00023BB6034E0204ABB68BB
:100CC0001B0113441A683B689A4226D11C4ABB6830
:100CD0001B01134404331A68FB681340002B1CD01B
:100CE000174ABB681B0113440C331B681449BA68CC
:100CF00012010A4410681249BA6812010A44043207
:100D00001268114698470E4ABB681B01134404330E
:100D10001B68DB43FA681340FB60BB680133BB60B0
:100D2000BB68062B03D8FB68002BC7D100E000BFCF
:100D300000BF1037BD4680BD610C4000790C4000FB
:100D4000D409402080B500AF0A210248024B9847E1
:100D500000BF80BD000E0E40910C400080B500AF7A
:100D60000B210248024B984700BF80BD00100E4087
:100D7000910C400080B500AF0C210248024B98470F
:100D800000BF80BD00120E40910C400080B500AF46
:100D900010210248024B984700BF80BD00140E404E
:100DA000910C400080B500AF11210248024B9847DA
:100DB00000BF80BD00160E40910C400080B483B08F
:100DC00000AF78607B68013B032B1AD801A252F870
:100DD00023F000BFE50D4000EB0D4000F30D400097
:100DE000FB0D400000237B600EE04FF480737B60BE
:100DF0000AE04FF440737B6006E04FF400737B60C1
:100E000002E000237B6000BF0A490A4B1B6B23F4FE
:100E100040727B6813430B6300BF064B9B6E03F06D
:100E20000803002BF9D000BF0C37BD465DF8047BEA
:100E3000704700BF00060E4080B485B000AF7860F8
:100E40001D491D4B1B6B23F070027B6813430B6322
:100E50004FF48053FB6007E0FB68002B01D10123B6
:100E600023E0FB68013BFB60134B9B6E03F0080320
:100E7000002BF1D0104A104B1B6B23F0030343F0FF
:100E8000020313634FF48053FB6007E0FB68002B01
:100E900001D1012309E0FB68013BFB60064B9B6E1F
:100EA00003F00803002BF1D0002318461437BD4689
:100EB0005DF8047B704700BF00060E4080B483B02D
:100EC00000AF78607B68012B05D10749064B9A6813
:100ED000064B13438B60044B054A1A6000BF0C3766
:100EE000BD465DF8047B704710180E40000010A549
:100EF000080000A580B400AF094B5B6903F08003D4
:100F0000002B07D0074B9B6E03F08003002B01D012
:100F1000012300E000231846BD465DF8047B7047BE
:100F200010180E4000060E4080B483B000AF786009
:100F30001549154B1A6A154B13430B6200BF124B30
:100F40009B6E03F40033002BF9D00F490E4B1A6A45
:100F50000F4B13407A68134343F45C130B6200BFDA
:100F6000094B9B6E03F40033002BF9D00649064B66
:100F70001A6A084B134043F45C130B6200BF0C3732
:100F8000BD465DF8047B704700060E400800370040
:100F90008FFFC8FFFFFFC8FE80B483B000AF78604A
:100FA00039607B68002B08D01349134B1B6A134A26
:100FB0001A40134B13430B6218E00F490E4B1A6A89
:100FC000104B13403A68120292B21A430E4B13436D
:100FD0000B6200BF084B9B6E03F00103002BF9D09E
:100FE0000549054B1A6A094B13430B6200BF0C37C6
:100FF000BD465DF8047B704700060E40FCFFC8FE4E
:1010000002003701FCFFC8FF010037000000370174
:1010100080B400AF044B9B6E03F480331846BD468A
:101020005DF8047B704700BF00060E4080B400AF3F
:10103000044B4FF000529A6200BFBD465DF8047B3E
:10104000704700BF00060E4080B400AF044B9B6E9B
:1010500003F002031846BD465DF8047B704700BFED
:1010600000060E4080B400AF044B9B6E03F04003BB
:101070001846BD465DF8047B704700BF00060E4071
:1010800080B483B000AF78607B683F2B01D9012327
:101090002FE07B681F2B13D8194B9A6901217B68BD
:1010A00001FA03F31A4001217B6801FA03F39A4223
:1010B0001ED0134A01217B6801FA03F3136117E084
:1010C0007B68203B7B600E4BD3F8082101217B68B5
:1010D00001FA03F31A4001217B6801FA03F39A42F3
:1010E00006D0074A01217B6801FA03F3C2F80031F8
:1010F000002318460C37BD465DF8047B704700BFDF
:1011000000060E4080B483B000AF78607B68082290
:101110001A607B6820221A607B6804221A6000BF74
:101120000C37BD465DF8047B7047000080B584B085
:1011300000AF786039600023FB607B684FF0FF32BE
:101140009A627B681B6A78680B4B984778680B4BF0
:1011500098473B6859683B681B681A467868084B93
:1011600098470346012B01D10123FB60FB68184619
:101170001037BD4680BD00BFBD13400005114000C3
:101180008511400080B489B000AFF860B9607A6022
:101190000023FB61BB68344A934201D901235DE01F
:1011A000BB68324A934237D97B68314AA2FB03239A
:1011B0009B0B033B7B61BA682E4B13449B007A6800
:1011C000B2FBF3F3033B3B6105E0FB690133FB61D9
:1011D0007B695B087B617B69FF2B09D9FB69062B67
:1011E000F3D905E0FB690133FB613B695B083B61B7
:1011F0003B69FF2B02D9FB69062BF3D97B69DAB275
:101200003B691B029BB21A43FB691B0403F4E023F6
:101210001A43FB681A6120E0BB685B007A68B2FB86
:10122000F3F3033BBB6105E0FB690133FB61BB6981
:101230005B08BB61BB69FF2B02D9FB69062BF3D9A5
:10124000BB69DAB2BB691B029BB21A43FB691B0480
:1012500003F4E0231A43FB681A610023184624377D
:10126000BD465DF8047B7047801A060000DC05006F
:10127000F11976050012FD3F80B485B000AF7860AB
:1012800039603B68002B01D100231DE07B681B788F
:10129000FB603B68012B09DDFB681B02FB607B6880
:1012A00001331B781A46FB681343FB603B68022B33
:1012B00009DDFB681B02FB607B6802331B781A4662
:1012C000FB681343FB60FB6818461437BD465DF8A6
:1012D000047B704780B586B000AF786039603B68AA
:1012E000DB687B613B689B683B6143F69823FB604E
:1012F0007B69002B01D1012359E07B6800225A60F1
:101300003B681B7C1B0403F4FE023B685B681B020A
:1013100003F44073134343F480527B685A607B6844
:101320000022DA603A683B685B6819461046224B37
:10133000984702467B68DA607B6801221A6029E0E0
:101340007B681B6ABB60BB6803F48073002B01D011
:1013500005232CE0FB685A1EFA60002B01D10923FB
:1013600025E07B69012B02D17B6802221A60BB68F1
:1013700003F00203002B00D10CE03B695A1C3A61D8
:101380007A68126BD2B21A707B69013B7B6143F6BB
:101390009823FB607B69002BD2D100BF7B681B6A5E
:1013A00003F00103002BF9D07B681B6A0023184669
:1013B0001837BD4680BD00BF7912400080B483B0AD
:1013C00000AF78607B6880221A607B681B6B00BF6F
:1013D0000C37BD465DF8047B704780B485B000AF24
:1013E000786039600023FB607B68AC221A603B6840
:1013F0001A683B685B68B2FBF3F31B09FB60FB6890
:10140000002B03D0FB68B3F5803F01D301230AE032
:101410007B68FA681A623B689A687B685A607B68E6
:1014200050221A60002318461437BD465DF8047B2D
:10143000704780B483B000AF78600B46FB707B6868
:101440005B6903F00203002B01D1012303E0FA786A
:101450007B68DA61002318460C37BD465DF8047BD3
:10146000704780B483B000AF786039607B685B6997
:1014700003F00103002B01D1012305E07B689B6988
:10148000DAB23B681A70002318460C37BD465DF887
:10149000047B704780B489B000AFF860B9607A60AF
:1014A000BB681A017B689A4202D81023FB6101E0F5
:1014B0000823FB617B68DA00FB69B96801FB03F371
:1014C0005B081A44FB69B96801FB03F3B2FBF3F351
:1014D000BB61BB69DB087B61BB6903F007033B6150
:1014E0007B69002B03D07B69B3F5803F01D30123D7
:1014F0000FE0FB69082B05D1FB685B6843F4002211
:10150000FB685A603B691A047B691A43FB681A62DC
:10151000002318462437BD465DF8047B7047000061
:1015200080B582B000AF786078680D4B98477B68D3
:1015300000225A607B6800225A627B6800229A620D
:101540007868084B98477868074B98477868074B46
:1015500098477868064B984700BF0837BD4680BD5E
:101560000117400013164000471640006116400066
:101570007D16400080B584B000AFF860B9607A6035
:10158000F8681A4B98471A4B00221A60BB68002B68
:1015900009D0BB681B687A681946F868154B9847EC
:1015A0000346002B01D001231BE0BB685A68BB68CF
:1015B0009B681A43BB681B691A43BB68DB681A4304
:1015C0000B4B1B6813430A4A1360094B1B68084AFC
:1015D0001360FB685A68064B1B681A43FB685A6025
:1015E000002318461037BD4680BD00BF21154000BE
:1015F000440A40209514400080B483B000AF786066
:101600007B6840221A6000BF0C37BD465DF8047B42
:10161000704780B483B000AF78607B6888221A601E
:1016200000BF0C37BD465DF8047B704780B483B0C3
:1016300000AF78607B6810221A6000BF0C37BD468F
:101640005DF8047B704780B483B000AF78607B683E
:1016500024221A6000BF0C37BD465DF8047B70473A
:1016600080B483B000AF78607B684FF480721A60FA
:1016700000BF0C37BD465DF8047B704780B483B073
:1016800000AF78607B684FF400221A6000BF0C370F
:10169000BD465DF8047B704780B483B000AF7860CE
:1016A00039607B685B6903F00203002B01D10123E1
:1016B00005E03B68C3F308027B68DA610023184643
:1016C0000C37BD465DF8047B704780B483B000AF33
:1016D000786039607B685B6903F00103002B01D1FE
:1016E000012306E07B689B69C3F308023B681A602C
:1016F000002318460C37BD465DF8047B7047000098
:1017000080B483B000AF78607B68044AC3F8E420FB
:1017100000BF0C37BD465DF8047B70470041535550
:1017200080B483B000AFEFF310837B607B68002B45
:101730000CBF01230023DBB23B6072B6BFF35F8FA7
:10174000044B00221A703B6818460C37BD465DF802
:10175000047B70470000402080B483B000AF786005
:101760007B68002B14BF01230023DBB218460C3723
:10177000BD465DF8047B704780B582B000AF7860ED
:101780007868074B98470346002B05D0054B01228C
:101790001A70BFF35F8F62B600BF0837BD4680BDC9
:1017A000591740000000402080B584B000AF1E4BA8
:1017B000FB601E4BBB60FA68BB689A420CD007E026
:1017C000BB681A1DBA60FA68111DF96012681A60C8
:1017D000BB68174A9342F3D3164BBB6004E0BB6867
:1017E0001A1DBA6000221A60BB68134A9342F6D3EE
:1017F000124BFB60124AFB6823F07F039360114B8E
:1018000098477860104A104B1B6843F470031360CC
:10181000BFF34F8FBFF36F8F78680C4B98470C4B1B
:1018200098470C4B9847FEE7CC7D400000004020D5
:10183000B8094020B8094020B40A40200000400008
:1018400000ED00E02117400088ED00E0791740002E
:101850006D2240002521400080B400AFFEE700006B
:1018600080B400AF524B1B6B03F00303012B14D069
:10187000012B02D3022B38D07AE04E4B5B6903F088
:101880008003002B04D04C4B4FF400421A606FE0F1
:10189000494B4FF4FA421A606AE0454B1B6A03F069
:1018A0008073002B03D0444B444A1A6060E0424BE3
:1018B000434A1A603E4B1B6A03F07003102B04D09E
:1018C000202B08D0002B0ED00EE03B4B1B685B009A
:1018D000394A136008E0384B1A6813465B0013441A
:1018E000354A136000E000BF42E0314B1B6A03F051
:1018F0008073002B03D0304B304A1A601CE02E4B13
:101900002F4A1A602A4B1B6A03F07003102B04D075
:10191000202B08D0002B0ED00EE0274B1B685B005D
:10192000254A136008E0244B1A6813465B001344F1
:10193000214A136000E000BF1D4B1B6B03F0030343
:10194000022B14D11A4B9B6A1B0CC3F30A030133FD
:10195000194A126802FB03F3174A1360144B9B6A7F
:10196000DBB2154A1268B2FBF3F3134A136000BFEF
:101970000F4B1B6B03F07003702B08D10E4B1B68D1
:10198000104AA2FB03235B080B4A13600AE0084BD2
:101990001B6B1B0903F00703074A126822FA03F3C3
:1019A000054A136000BFBD465DF8047B704700BF69
:1019B00000060E4010180E4004004020001BB70027
:1019C00000093D00ABAAAAAA80B483B000AF78603A
:1019D0007B68194A934204D8184B4FF080621A6012
:1019E00023E07B68164A934203D8144B154A1A60C9
:1019F0001BE07B68144A934203D8104B134A1A60C9
:101A000013E07B68124A934203D80C4B114A1A60C8
:101A10000BE07B68104A934204D8084B4FF0042235
:101A20001A6002E0054B0D4A1A6000BF0C37BD4634
:101A30005DF8047B704700BFFF2C3101000C0E40A5
:101A4000FF59620200010004FF86930300020004B4
:101A5000FFB3C40400030004FFE0F5050005000423
:101A600080B485B000AF7860104BFB60104B1B68F2
:101A7000002B02D10E4B0F4A1A600D4B1B68BB6046
:101A8000BA687B681A44FB689A4202DD4FF0FF3364
:101A900006E0074B1A687B681344054A1360BB686D
:101AA00018461437BD465DF8047B7047FCFF45209F
:101AB000480A4020B82C402080B483B000AF786042
:101AC0004FF0FF3318460C37BD465DF8047B704776
:101AD00080B483B000AF786039603B684FF4005247
:101AE0005A60002318460C37BD465DF8047B7047EA
:101AF00080B483B000AF7860012318460C37BD4630
:101B00005DF8047B704780B485B000AFF860B960C1
:101B10007A60002318461437BD465DF8047B704791
:101B200080B483B000AF78607B68072B25D801A212
:101B300052F823F0551B40005B1B4000611B400026
:101B4000671B40006B1B40006F1B4000731B400075
:101B5000771B40004FF4FA4310E04FF400430DE0D0
:101B60004FF400430AE0084B08E0084B06E0084B3E
:101B700004E0074B02E0064B00E0002318460C3758
:101B8000BD465DF8047B704700093D0000127A00F5
:101B9000001BB70080B500AF0620054B98470246F2
:101BA00013469B0013449A001344184680BD00BF9F
:101BB000211B400080B500AF024B984703461846F2
:101BC00080BD00BF951B400080B500AF024B984719
:101BD00003465B08184680BD951B400080B582B067
:101BE00000AF78607868034B984700BF0837BD4660
:101BF00080BD00BF8110400080B58CB000AF786020
:101C00003960494B984703467B623B681B68BB625F
:101C10003B689B68FB623B681B68FB603B685B68DA
:101C20003B613B689B687B613B68DB68BB61002371
:101C3000FB617B683D4A934208D107203C4B9847A3
:101C400007F12403194678683A4B98477B683A4A6B
:101C5000934208D10820364B984707F124031946D0
:101C60007868344B98477B68344A934208D12C20DB
:101C70002F4B984707F12403194678682D4B984756
:101C80007B682F4A934208D12D20294B984707F1B2
:101C9000240319467868274B98477B68294A934262
:101CA00011D10D20224B98471F4B9847024607F150
:101CB0000C0319467868244B98477868234B98475B
:101CC0007868234B98477B68224A934211D10E20B3
:101CD000174B9847144B9847024607F10C031946D7
:101CE0007868194B98477868184B98477868184B6C
:101CF00098477B68184A934211D10F200C4B9847A4
:101D0000094B9847024607F10C03194678680E4BB9
:101D1000984778680D4B984778680D4B984700BFF7
:101D20003037BD4680BD00BFC91B400000080E40D3
:101D3000DD1B4000DB134000000A0E40001A0E407D
:101D4000001C0E400040024075154000F91540008F
:101D50002D1640000080024000C0024080B582B0D5
:101D600000AF78600B46FB707B68364A93420AD11D
:101D700000BFFB7819467868334B98470346002B21
:101D8000F7D101235AE07B68304A93420AD100BF61
:101D9000FB78194678682C4B98470346002BF7D1FF
:101DA00001234BE07B682A4A93420AD100BFFB78AB
:101DB00019467868244B98470346002BF7D1012336
:101DC0003CE07B68234A93420AD100BFFB78194666
:101DD00078681D4B98470346002BF7D101232DE06F
:101DE0007B681D4A93420AD100BFFB781946786888
:101DF0001A4B98470346002BF7D101231EE07B685E
:101E0000174A93420AD100BFFB7819467868134BF2
:101E100098470346002BF7D101230FE07B68114A56
:101E200093420AD100BFFB78194678680B4B98475C
:101E30000346002BF7D1012300E0002318460837A2
:101E4000BD4680BD00080E4033144000000A0E401D
:101E5000001A0E40001C0E4000400240991640003F
:101E60000080024000C0024080B584B000AF7860BE
:101E700039600023FB607B68344A934207D100BF7E
:101E800039687868324B98470346002BF8D17B6855
:101E9000304A934207D100BF396878682C4B984785
:101EA0000346002BF8D17B682B4A934207D100BF31
:101EB00039687868264B98470346002BF8D17B6831
:101EC000264A934207D100BF39687868204B98476B
:101ED0000346002BF8D17B68214A93420DD100BF05
:101EE00007F10C03194678681E4B98470346002BF0
:101EF000F6D1FB68DAB23B681A707B681A4A9342E3
:101F00000DD100BF07F10C0319467868154B9847AF
:101F10000346002BF6D1FB68DAB23B681A707B6887
:101F2000124A93420DD100BF07F10C03194678689D
:101F30000C4B98470346002BF6D1FB68DAB23B689E
:101F40001A7000BF1037BD4680BD00BF00080E40AC
:101F500063144000000A0E40001A0E40001C0E40A0
:101F600000400240CB1640000080024000C002400A
:101F700080B582B000AF786039600F4A7B6813602B
:101F80000E4B0F4A1A600F4B0F4A1A603968786877
:101F90000E4B98470E4B1B689B68002118460D4B53
:101FA00098470B4B1B685B6800211846094B984704
:101FB00000BF0837BD4680BD880A4020840A402003
:101FC0005D1D4000800A4020691E4000F91B400052
:101FD000080040202D24400090B585B000AF0B20B4
:101FE000154B98470A20144B984710224FF0005188
:101FF0001248134B98474FF400124FF000611148FC
:102000000F4B9847104A104BD3F8143143F010038C
:10201000C2F814310D4B3C460FCB84E80F000E2064
:10202000054B98473B46194609480A4B984700BF5D
:102030001437BD4690BD00BFDD1B400000100E40B0
:10204000510B4000000E0E4000800840A07A400076
:1020500000800240711F400080B584B000AF1320A3
:10206000084B9847084B984703467B6049F6404326
:10207000BB603B1D19460548054B984700BF10370C
:10208000BD4680BD81104000B51B4000008001406E
:102090002D11400080B58AB000AFBA601A460346E1
:1020A000FB810B46BB811346FB8000237B62FB89CF
:1020B000DBB287F82030BB89DBB23B7401237B6144
:1020C000BB68BB61FB88FB6107F11003194605483B
:1020D000054B984703467B627B6A5BB218462837FC
:1020E000BD4680BD00800140D512400090B583B050
:1020F00000AFFA1D012302213820094CA047FA1D28
:10210000012302213820064CA047FB79022B01D97C
:102110000023FB71FB7918460C37BD4690BD00BF0C
:102120009520400090B585B000AF00233B8100238F
:102130007B810023BB800023FB803B4B98473B4BBC
:1021400098473B4B4FF400425A603A4B98473A4805
:102150003A4B98473A4B9847FA1C0123A82138205C
:10216000384CA047FA1C0123A8213820354CA04741
:10217000FB7819463448354B9847FA1C0123032154
:102180003820304CA047FA1C0123032138202D4C65
:10219000A047FB7819462E482C4B9847FA1C012380
:1021A000A6213820274CA047FA1C0123A62138205D
:1021B000244CA047FB7819462348244B984700231A
:1021C000FB8122E02348214B9847B7F90E3019468E
:1021D00021481E4B984721481C4B9847F989FA1C07
:1021E00001233820174CA047F989FA1C0123382015
:1021F000144CA047FB7819461948144B9847B7F977
:102200000E309BB201339BB2FB81B7F90E300F2B1E
:10221000D8DD144B98470346FB70FB7819461248EB
:102220000A4B9847F5E700BFAD0440007D0A400027
:1022300050180E40D91F4000B07A40001D244000C5
:102240005920400095204000C87A400059234000A2
:10225000D87A4000E87A4000F07A4000F47A4000F2
:10226000FC7A4000ED204000047B400070B50F4E2A
:102270000F4D761BB61018BF002405D0013455F859
:10228000043B9847A642F9D10A4E0B4D761B05F048
:1022900087FDB61018BF002406D0013455F8043B62
:1022A0009847A642F9D170BD70BD00BFAC7D40001B
:1022B000AC7D4000B47D4000AC7D400070B486072A
:1022C00046D0541E002A41D0CAB2034602E014F19F
:1022D000FF343BD303F8012B9D07F8D1032C2ED9F3
:1022E000CDB245EA05250F2C45EA054519D903F17C
:1022F00010022646103E0F2E42F8105C42F80C5C8D
:1023000042F8085C42F8045C02F11002F2D8A4F131
:10231000100222F00F0204F00F041032032C1344B9
:102320000DD91E462246043A032A46F8045BFAD821
:10233000221F22F003020432134404F003042CB1E0
:10234000C9B21C4403F8011B9C42FBD170BC70470E
:1023500014460346C2E700BF0FB400B5074983B077
:1023600004AB086853F8042B8168019300F0B6F9B8
:1023700003B05DF804EB04B0704700BF08004020D4
:10238000F0B5054689B008460C4600F039F9AB6B4C
:10239000214F04940126441C04A9022203940590B1
:1023A000AC68069707960191029253B3636E13F0DF
:1023B000010FB4F90C309AB201D1900525D59104E2
:1023C00006D4626E43F4005322F40052A381626685
:1023D000284601AA214602F021FF636E00280CBFA7
:1023E0000A254FF0FF35DA0702D4A3899B0502D5F1
:1023F000284609B0F0BDA06D03F0C6F8284609B024
:10240000F0BD284602F082FDD0E7A06D03F0BAF8D7
:10241000B4F90C309AB2D2E7147B4000024B01466B
:102420001868FFF7ADBF00BF0800402000290CBFAF
:10243000022200224FF4806300F000B82DE9F0433F
:10244000614C256883B004460F4690461E4615B180
:10245000AB6B002B64D0B8F1020F06D0B8F1010FBE
:1024600000F29F80002EC0F29C80636ED80734D5A6
:102470002146284602F0F2FC216B41B104F14003F1
:10248000994202D0284602F0E3FD00232363B4F909
:102490000C300022A26162601A063AD423F44A6327
:1024A00023F00303B8F1020FA3811DD001AB6A46EC
:1024B0002146284603F06AF8A3891843A081002E1C
:1024C00032D1009E304603F0D9F8074600286BD081
:1024D000A38943F08003A38128E0A3899905C7D489
:1024E000A06D03F04FF8C3E70025616E002604F1EC
:1024F000430243F002030120A660CE07A3812260BD
:102500002261606101D498053ED5284603B0BDE83C
:10251000F0832169284602F09BFDB4F90C30BDE739
:10252000284602F0F3FC96E7002FCBD0AB6B002BD4
:1025300033D0009BB4F90C2027609E421CBF42F4AC
:102540000062A281B8F1010F04BF42F00102A28132
:1025500092B212F00803276166610ED0D1071AD536
:10256000656E7642002315F00105A661A36009D0CF
:102570000025284603B0BDE8F083A360656E15F022
:102580000105F5D19305C0D4A06D02F0FDFF2846EA
:1025900003B0BDE8F083A660F0E7284602F0B6FC81
:1025A000C7E74FF0FF35B0E7DDF80090B14504D044
:1025B000484603F063F8074620B9B4F90C304FF0F1
:1025C000FF3592E74E4683E70800402000000000F8
:1025D00000000000000000000000000000000000FB
:1025E00000000000000000000000000000000000EB
:1025F00000000000000000000000000000000000DB
:1026000090F800F06DE9024520F007016FF0000C32
:1026100010F0070491F820F040F049804FF00004DA
:102620006FF00700D1E9002391F840F000F10800B5
:1026300082FA4CF2A4FA8CF283FA4CF3A2FA8CF3ED
:102640004BBBD1E9022382FA4CF200F10800A4FA54
:102650008CF283FA4CF3A2FA8CF3E3B9D1E90423A8
:1026600082FA4CF200F10800A4FA8CF283FA4CF3DF
:10267000A2FA8CF37BB9D1E9062301F1200182FA99
:102680004CF200F10800A4FA8CF283FA4CF3A2FA9F
:102690008CF3002BC6D0002A04BF04301A4612BAAD
:1026A000B2FA82F2FDE8024500EBD2007047D1E9B0
:1026B000002304F00305C4F100004FEAC50514F03F
:1026C000040F91F840F00CFA05F562EA05021CBF10
:1026D00063EA050362464FF00004A9E72DE9F04FD5
:1026E000C1B01D468A4691460446089002F038FF64
:1026F000036815931846FFF783FF0E9514901CB1DD
:10270000A36B002B00F05F82DAF86430BAF90C207A
:1027100013F0010F93B202D1990540F175829F0425
:102720000AD4DAF8641042F4005321F40051AAF8F4
:102730000C30CAF864109BB21E0740F12382DAF80D
:102740001020002A00F01E8203F01A020A2A00F06C
:102750003E820023184611931393129325932493DA
:10276000189319930B9330AB2393984616901790B8
:10277000CDF828A099F800304C46EBB1252B02D1BA
:102780001AE0252B03D014F8013F002BF9D1A4EB5C
:1027900009058DB1249B259AC8F8009001332A447D
:1027A000072BC8F804502592249300F3018208F106
:1027B00008080B9B2B440B932378002B00F0F0832D
:1027C00000231A468DF86F3019460C939B466678A5
:1027D0004FF0FF3304F10109099309F10109A6F152
:1027E0002003582B00F2BF83DFE813F0E002BD03A3
:1027F000BD034F03BD03BD03BD03BD03BD03BD0347
:1028000054030803BD031A02E802BD0303033A039D
:102810003A033A033A033A033A033A033A033A03D0
:10282000BD03BD03BD03BD03BD03BD03BD03BD03A8
:10283000BD03BD0349036203BD036203BD03BD03C2
:10284000BD03BD03A203BD03BD036F00BD03BD03F4
:10285000BD03BD03BD035900BD03BD031E03BD037E
:10286000BD03BD03BD03BD03BD03BD03BD03BD0368
:10287000BD0324037302620362036203B70273029F
:10288000BD03BD03BC02BD03C90271000D034702B5
:10289000BD035202BD035B00BD03BD031F024BF02D
:1028A000100B1BF0200F40F053830E9A1BF0100FFB
:1028B000134640F0B4851BF0400F00F0B08514883B
:1028C0000432002501230E9214E04BF0100B1BF094
:1028D000200340F032831BF0100240F089851BF08A
:1028E000400300F085850E9913460A4604320C8891
:1028F0000E9200254FF0000A8DF86FA009994A1C2E
:1029000000F00B822BF08002069254EA050240F0A0
:102910000A82002940F06F84002B40F02D851BF0C7
:1029200001030D9300F0688640AF302307F8413D66
:10293000099B0D9A9342B8BF134607930023109347
:10294000BAF1000F02D0079B01330793069B13F0E7
:1029500002030F9302D0079B02330793069B13F0E9
:10296000840540F01B830C9B079AA3EB020BBBF181
:10297000000F40F31383BBF1100F2599249A28DD33
:1029800043461024A846DDF820A00A9D06E0ABF1DE
:10299000100BBBF1100F03F1080318DD0132B94829
:1029A00024921031072A259183E81100EFDD23AA34
:1029B0002946504603F0ACFF002840F06A83ABF193
:1029C000100BBBF1100F2599249A30ABE6DC45467D
:1029D00098460132AB4B24920BEB0104072A259455
:1029E00088E8080800F3CD849DF86FA008F1080876
:1029F000BAF1000F0ED0249B013301340DF16F01A9
:102A00000122072B2594249388E8060000F30A840A
:102A100008F108080F9B6BB1249B013302341CA9F9
:102A20000222072B2594249388E8060000F30684ED
:102A300008F10808802D00F02E83099B0D9AA3EB66
:102A4000020ABAF1000F3BDDBAF1100F249B8E4D44
:102A50002BDD42462146B0464FF0100B2E46089C17
:102A60000A9D06E0AAF1100ABAF1100F02F108025D
:102A700017DD01331031072B2591249382E840089C
:102A8000F0DD23AA2946204603F042FF002840F04B
:102A90000083AAF1100ABAF1100F2599249B30AADD
:102AA000E7DC35460C464646904601335444072B36
:102AB0002594249388E8200400F3A98308F10808EA
:102AC000069BDB0500F18582249B0D99C8F80070F8
:102AD00001330C44072B2594C8F80410249300F309
:102AE000758308F10808069B59073BD50C9B079A8C
:102AF0009D1A002D36DD102D249B21DD1026089F08
:102B0000DDF828A004E0103D102D08F1080817DDBD
:102B100001335C4A24931034072B259488E8440041
:102B2000F1DD23AA5146384603F0F2FE002840F0BA
:102B30003F82103D102D259C249B0DF1C008E7DC41
:102B40000133504A24932C44072B259488E8240011
:102B500008DD23AA0A99089803F0DAFE002840F05D
:102B60004783259C0B9B0C9A07998A42ACBF9B1804
:102B70005B180B93002C40F03383002324930DF15A
:102B8000C008F7E55146089801F096F8002838D0BB
:102B9000DAF86430DD0704D4BAF80C309C0540F153
:102BA000CA854FF0FF330B930B9841B0BDE8F08F0F
:102BB00023AA0A99089803F0ABFE002840F0188376
:102BC0000DF1C008F5E5089802F0A0F99CE5BAF906
:102BD0000E20002AFFF6BDADDAF86420D00705D438
:102BE000990503D4DAF8580002F0CEFC2B464A4689
:102BF0005146089801F01EF80B900B9841B0BDE8C3
:102C0000F08FBAF80C309FE5DAF8580002F0BAFC01
:102C1000BAF90C2093B282E50C980E9340420C90C6
:102C20004BF0040B99F80060D7E5002A40F0DF87ED
:102C3000164B18931BF0200F40F0B9840E9A1BF02E
:102C4000100F134640F0DC831BF0400F00F0D883D8
:102C5000043314880E9300251BF0010F00F022832B
:102C600054EA050300F01E8330238DF870308DF890
:102C700071604BF0020B02233CE64BF0200B99F8FD
:102C80000060AAE55C7B40006C7B40003C7B400020
:102C90000E9A176800248DF86F40151D002F00F064
:102CA0004E86099A531C00F0CC852146384602F026
:102CB0009FFF002800F09786C31B0D9309940E9583
:102CC000CDF818B023EAE373079310949DF86FA032
:102CD00036E6002A40F096871BF0200F40F05A8419
:102CE0001BF0100F40F0A2831BF0400F00F09E83FA
:102CF0000E99B1F900400431E51722462B460E919A
:102D0000002A73F10003C0F2878409999DF86FA02F
:102D10004A1C4FF001037FF4F5AD54EA050200F0C0
:102D20006C82CDF818B0012B00F00883022B40F024
:102D30009582189830AF230904F00F0143EA057318
:102D40002A091C461546435C07F8013D54EA050371
:102D5000F1D130ABDB1B0D93EAE54BF0400B99F85A
:102D600000603AE599F800606C2E03BF99F80160A5
:102D70004BF0200B09F101094BF0100B2DE5002A57
:102D800040F04C871BF0200F40F03F851BF0100FE8
:102D900040F0FC801BF0400F00F0F8800E9A1368A2
:102DA00004320E92BDF82C201A80E3E499F80060FA
:102DB00000297FF412AD012220210EE599F8006070
:102DC0002A2E09F1010000F0F186A6F13003092B4B
:102DD000814698BF002000F23D8619F8016B00EB98
:102DE000800003EB4000A6F13003092BF5D90990D0
:102DF000F5E44BF0800B99F80060EEE499F8006080
:102E000001222B21E9E40E9AAE4B14681893782620
:102E1000302304328DF870304BF0020B0E920025F7
:102E20008DF87160022365E5002A40F0E486A64B28
:102E30001893FFE60E99CDF818B00A688DF898201F
:102E400000230A469A468DF86F3004320123079317
:102E5000CDF824A0CDF840A00E920D9326AF75E5D5
:102E6000A6F13003002019F8016B00EB800003EBA2
:102E70004000A6F13003092BF5D90C90AFE4002AED
:102E800040F0C8864BF0100B26E74BF0010B99F889
:102E90000060A2E40E9C23680C9318460028234689
:102EA00003F10403FFF6B8AE0E9399F8006094E4C2
:102EB000002A40F0B7860E9D073525F0070303F181
:102EC00008020E921A6813925B681293129B139D6C
:102ED00023F00044284621464FF0FF327B4B04F09C
:102EE00019FC002840F0A283284621464FF0FF320B
:102EF000764B04F0F1FB002840F09883169A139863
:102F0000179B129904F0DEFB002840F035849DF8F1
:102F10006FA06F4F6F4B032200212BF080000792B0
:102F200009910690472ED8BF1F460D92109107E5D4
:102F30004BF0080B99F800604FE40E9D073525F023
:102F4000070303F10802D3E900450E920023D1E400
:102F50000E9D073525F0070303F10802D3E900456C
:102F60000E920123C6E4002A40F05086C6B1002329
:102F700001229A4607928DF89860CDF818B08DF826
:102F80006F30099310930D9226AFDFE40E9A136809
:102F900004320E920B9A1A60FFF7ECBB259C27E5D2
:102FA000259BDDF828A0002B40F094850023249376
:102FB000DAF8643013F0010FBAF80C3002D19A0538
:102FC00040F149825B063FF5ECAD0B9841B0BDE89E
:102FD000F08F652E40F3B280169A1398179B1299C2
:102FE00004F066FB002800F06081249B3A4AC8F890
:102FF0000020013301340122072B25942493C8F8C3
:10300000042000F3BF8308F108081D9B119A259C3A
:10301000934203DB069BDF077FF565AD249B149984
:10302000159AC8F8002001330C44072BC8F8041087
:103030002594249300F3F88308F10808119B5E1E81
:10304000002E7FF750AD102E249B244D40F3DD81E0
:103050001027DDF820A0DDF828B005E008F1080809
:10306000103E102E40F3D18101331034072B2594EC
:10307000249388E8A000F1DD23AA5946504603F0C6
:1030800047FC002840F0CD83259C249B0DF1C0080F
:10309000E6E7AA468CE70C9B079AA3EB020ABAF173
:1030A000000F7FF7CAACBAF1100F249B0B4D39DD2E
:1030B00042462146B0464FF0100B2E46089C0A9D12
:1030C00015E000BF3C7B4000287B4000FFFFEF7F06
:1030D0001C7B4000187B4000587B40006C7B40000C
:1030E000AAF1100ABAF1100F02F1080216DD01333D
:1030F0001031072B2591249382E84008F0DD23AAA4
:103100002946204603F004FC0028C2D1AAF1100A87
:10311000BAF1100F2599249B30AAE8DC35460C46FD
:103120004646904601335444072B2594249388E85F
:10313000200400F3648208F108087EE4119B249EB9
:10314000012B40F3FD81013601340123072E259424
:103150002496C8F80070C8F8043000F30E8208F115
:103160000808149A159BC8F8003001361444072E3D
:1031700025942496C8F8042000F32E8208F108084C
:10318000179B169A1398129904F092FA119B002833
:1031900040F00681013B013601371C44072E24967E
:1031A0002594C8F80070C8F8043000F3D98108F1FC
:1031B0000808199AC8F80420013614441FAB072EDA
:1031C00025942496C8F800307FF78BAC23AA0A997F
:1031D000089803F09DFB58B9259C0DF1C00882E4C6
:1031E00023AA0A99089803F093FB00283FF4C5AC82
:1031F000DDF828A0DCE6DDF818B0012B00F0218115
:10320000022B27D1CDF818B00024002591E523AA80
:103210000A99089803F07CFB0028E9D1259C0DF160
:10322000C0084DE423AA0A99089803F071FB00280E
:10323000DED1259C0DF1C008FFF7ECBB23AA0A994B
:10324000089803F065FB0028D2D1259C0DF1C00839
:10325000FFF7F0BBCDF818B00024002530A900E03E
:103260003946E20842EA4572E80804F007030546D9
:103270001446303354EA050201F8013C01F1FF37EE
:10328000EED1069AD2077FF564AD302B3FF461ADE5
:103290003023023907F8013C30AB5B1A0D930F461F
:1032A000FFF746BB0223FFF725BB1D99002940F31A
:1032B0007482109B119A9342A8BF1346002B1E469E
:1032C0000DDD249BC8F8007001333444072B25948E
:1032D000C8F80460249300F3248308F10808109BC5
:1032E000002EA8BF9B1B002B1E4640F3D080102E43
:1032F000249BC04D40F3B78022464FF0100ADDF802
:1033000020B00A9C05E008F10808103E102E40F39A
:10331000A98001331032072B2592249388E82004DA
:10332000F1DD23AA2146584603F0F2FA002840F0C6
:103330002483259A249B0DF1C008E6E7002D08BFE1
:103340000A2C7CD330AF204629460A22002304F001
:103350001FFA303207F8012D2046294600230A22A1
:1033600004F016FA04460D4654EA0503EBD130ABDF
:10337000DB1B0D93FFF7DCBA099B0D9330AFFFF712
:10338000D7BA23AA0A99089803F0C2FA00287FF452
:103390002FAF9DF86FA0259C0DF1C008FFF728BB4B
:1033A0005F1E002F7FF705AF102F924D40F30A816B
:1033B0004FF0100ADDF820B005E008F10808103FD2
:1033C000102F40F3FF8001361034072E25942496E9
:1033D00088E82004F1DD23AA0A99584603F098FAF8
:1033E00000287FF405AF259C249E0DF1C008E6E778
:1033F0000E990A4604320C680E920025FFF77ABA3D
:103400001C6804330E93002526E401333444072B53
:103410002594249388E860007FF763ABD6E60432F6
:103420001C680E9201230025FFF764BA0E9A1468F7
:1034300013460433E5170E9322462B4660E4DDF86D
:1034400018B0CDF818B040AF3034012307F8414D23
:103450000D93FFF76DBADAF8580002F095F8BAF854
:103460000C30AFE5144601333444072B25942493E4
:1034700088E8600040F36D8123AA0A99089803F058
:1034800047FA00287FF4B4AE259C0DF1C0081D9BBF
:10349000119A934280F25881249A14981599C8F889
:1034A000001001320444072A2594C8F8040024922D
:1034B00000F3528108F10808119A1099D31A561A8C
:1034C0009E42A8BF1E46002E0EDD249AC8F8046056
:1034D00001320F443444072AC8F80070259424921E
:1034E00000F33C8208F10808002EACBF9E1B1E466C
:1034F000002E7FF7F8AA102E249B3E4D85DD102765
:10350000DDF820A0DDF828B005E008F10808103E3D
:10351000102E7FF77AAF01331034072B25942493B4
:1035200088E8A000F1DD23AA5946504603F0F0F9DF
:10353000002840F07681259C249B0DF1C008E6E729
:10354000069BD8073FF5FFAD013601340123072E56
:1035500025942496C8F80070C8F804307FF727AE89
:1035600023AA0A99089803F0D3F900287FF440AE03
:10357000259C249E0DF1C0081BE623AA0A990898F1
:1035800003F0C6F900287FF433AE259C249E0DF18C
:10359000C008E6E50E9D073525F00705D5E90023AF
:1035A00005F108010E9114461D46FFF7A9BB0E9DBB
:1035B000073525F0070303F108020E92D3E9004511
:1035C000FFF74ABB01363C44072E2594249688E831
:1035D000A0007FF7ECADC3E723AA0A99089803F08F
:1035E00097F900287FF404AE259C249E0DF1C008B5
:1035F000C6E500BF6C7B400030AFFFF799B923AA46
:103600000A99089803F084F900287FF4F1AD259C0D
:103610000DF1C008FFF711BA4FF02D0A644265EBB7
:1036200045058DF86FA00123FFF768B9139C22466A
:103630002046129C2346214604F06CF8002840F0F6
:103640008C82099B013326F020030D9300F09180BA
:10365000472B04D1099B002B08BF012309934BF48E
:1036600080730693129BB3F1000A139B0793BBBFB1
:10367000534603F1004A00232D23662E0F9300F0DA
:103680007F81462E00F0D4810D9B079A452B0CBFFD
:10369000099B099D21A81EA908BF5D1C04900391E8
:1036A0001DA802210290534601950091089800F050
:1036B0000BFC672E074640F0AF811BF0010F00F0B6
:1036C00013827C19169A0798179B514603F0F0FF56
:1036D000002840F03281219BA34206D230215A1C9F
:1036E00021921970219B9C42F9D8DB1B11930D9BF1
:1036F000472B00F0B980652E40F376821D9B109316
:10370000662E00F06281119B109A1946914200F3D7
:103710004F811BF0010F40F0098222EAE273079308
:103720000D9267260F9B002B40F0968009939DF821
:103730006FA0FFF705B9DAF8580001F025FF4FF048
:10374000FF330B93FFF730BA069AD5077FF5B4AE77
:10375000A2E608F108089AE623AA0A99089803F055
:10376000D7F800287FF444AD1D9B259C0DF1C008BF
:10377000A2E60623099372E74FF02D0A8DF86FA099
:10378000FFF7C7BB23AA0A99089803F0C1F80028DD
:103790007FF42EAD0DF1C00837E4249BB44AC8F87D
:1037A0000020013301340122072B25942493C8F80B
:1037B000042000F3248108F1080829B9119B1BB9E2
:1037C000069BDE077FF58FA9249B1498159AC8F8ED
:1037D0000020013302462244072B2592C8F804003A
:1037E000249300F3698108F108080029C0F23681AA
:1037F0001199C8F8007001338C18072B2594249375
:10380000C8F804107FF76DA9E0E40E9A0B991368CD
:10381000CD170846043229460E92C3E90001FEF78F
:10382000A9BFDA46FFF7C4BB23AA0A99089803F098
:103830006FF800287FF4DCAC259C0DF1C008FFF781
:10384000FDBB38460994FEF7DBFE0E950D90CDF8D2
:1038500018B00346FFF736BA4FF02D0A00238DF853
:103860006FA00993FFF76FB81D9B10931A4603339F
:1038700004DB099B19469142BFF645AF023E109BFF
:103880008DF87C60013B002B1D93BDBF109BC3F1E5
:1038900001032D222B22092B8DF87D2040F33E8140
:1038A0000DF18B042046734D00E0104685FB03129A
:1038B000D917C1EBA20101EB8102A3EB4202303226
:1038C000092900F8012C0B4600F1FF32EDDC303302
:1038D0000238D9B2844202F8011C40F290810DF105
:1038E0007E00134601E013F8011B00F8011BA34200
:1038F000F9D101339B1A0DF17E0213441FAA9B1AC2
:10390000119A1993012A13440D9340F345810D9B9D
:10391000149A13440D9323EAE3730793002310933F
:1039200000E723AA0A99089802F0F2FF00287FF422
:103930005FAC259C0DF1C008D1E42346D5E6099B78
:103940001097062B28BF06230997BA4607930E95B2
:10395000CDF818B00D93484FFEF7F2BF23AA0A998D
:10396000089802F0D5FF00287FF442AC1D9B119A05
:10397000259CD31A0DF1C008B6E5A246FFF718BB87
:1039800021A81EA9099D049003911DA8032102905E
:10399000079A019553460091089800F095FA07465A
:1039A00044193B78302B00F0CA801D9D2C4489E6D9
:1039B000149A119B1344109A0D93002A40F3E4804B
:1039C00023EAE37307936726ACE6002B40F3FB8002
:1039D000099A002A40F0CE801BF0010F40F0CA8007
:1039E00007930D939EE6099B07930D9309900E95FF
:1039F000CDF818B010909DF86FA0FEF7A1BF23AAD4
:103A00000A99089802F084FF00287FF4F1AB1D9911
:103A1000259C0DF1C008D0E6472E7FF452AE1BF076
:103A2000010F00F0DA80462E07EB0504B9D049E615
:103A300021A81EA9099C049003911DA803210290AE
:103A4000079A019453460091089800F03DFA2546E4
:103A50000746E8E700230993FEF7C1BE4E42103146
:103A6000064D43DA1024DDF820A0DDF828B00CE084
:103A7000587B400067666666507B40006C7B400068
:103A800008F10808103E102E30DD01331032072BEC
:103A900025922493C8F80050C8F80440F0DD23AA0A
:103AA0005946504602F034FF00287FF4BAAE259AFA
:103AB000249B0DF1C008E5E723AA0A99089802F0B3
:103AC00027FF00287FF494AB1D99259A249B0DF1C4
:103AD000C0088AE6089823AA514602F019FF002878
:103AE0003FF464AAFFF764BA219BFEE50133324438
:103AF000072B88E860002592249308F108087FF7D7
:103B000077AE23AA0A99089802F002FF00287FF4F2
:103B10006FAB259A249B0DF1C00869E63033302243
:103B20008DF87F308DF87E2020ABE7E6109B149A4D
:103B300013440D9323EAE37307936726F2E5169A7D
:103B40000798179B514603F0B3FD00287FF42DAF73
:103B5000C5F101051D952C44B4E5129B334F002B94
:103B6000B6BF4FF02D0A9DF86FA08DF86FA0304BB7
:103B7000FFF7D1B9109B149A1344099A1A4422EA08
:103B8000E2730D920793CDE5109B0D9AC3F10103EB
:103B90001A4413460D9213E71BF0010310937FF4B0
:103BA000B6AE0D9B23EAE3730793BBE50E9C99F831
:103BB0000160236843EAE373099323460433814693
:103BC0000E93FEF70ABE099B13B91BF0010F02D03A
:103BD000149B0133D1E7012302E7219BDB1B1193E7
:103BE0000D9B472B3FF440AE1D9B109347E68DF88D
:103BF0006F10FFF71DB88DF86F10FFF718B90DF1B2
:103C00007E037BE68DF86F10FFF766B88DF86F10B6
:103C1000FFF7ACB98DF86F10FFF734B98DF86F105E
:103C2000FFF7B0B88DF86F10FFF745B9247B40005F
:103C3000207B40002DE9F0410C46ADF58D6D898962
:103C4000666EE589199621F002010646E069ADF835
:103C50000C1017464FF48061626AADF80E5098461A
:103C60001AAD0023079016A80992069300950495B3
:103C70000291059101F082FC43463A46694630467E
:103C8000FEF72CFD051E07DB3046694601F0E6F81D
:103C9000002818BF4FF0FF35BDF80C305B0603D588
:103CA000A38943F04003A381169801F069FC2846DC
:103CB0000DF58D6DBDE8F08138B5304B1B680546BC
:103CC0000C4613B19A6B002A38D0B4F90C2093B289
:103CD00018070CD52069A8B113F001021ED0636942
:103CE00000225B42A361A260F0B1002038BDD9067A
:103CF0003CD5580726D4206942F00803A3819BB223
:103D00000028E9D103F42072B2F5007FE4D0284600
:103D1000214601F069FCA3892069DDE7990758BFB6
:103D20006269A2600028E0D1B4F90C301A06DDD532
:103D300043F04003A3814FF0FF3038BD184601F037
:103D4000E5F8C2E7216B51B104F14003994204D078
:103D5000284601F07DF9B4F90C20002323630023E9
:103D60002069636022F024022060C5E742F040022F
:103D700009232B604FF0FF30A28138BD080040209E
:103D8000024B13B1024800F005B870470000000074
:103D90007D4F4000002301461A46184602F0D8BD68
:103DA00002690B69934200F38D802DE9F04F03F116
:103DB000FF3801F1140700F1140B57F828205BF8C5
:103DC00028304FEA880483B00132B3FBF2F90BEBE1
:103DD0000403009407EB040A0193B9F1000F39D0F2
:103DE00000252E46BC46DE465CF8044BDEF800306B
:103DF000A2B209FB0255220C2C0C09FB0242ADB207
:103E0000751B96B2C6EB134615FA83F306EB2346F1
:103E10009BB243EA0643E2454FEA12454EF8043BA3
:103E20004FEA2646E0D2009B5BF8033093B9019C31
:103E3000231F9B450CD254F8043C4BB9A4F1080352
:103E400002E01A68043B1AB99B4508F1FF38F8D321
:103E5000C0F81080044602F023FA00282EDB09F196
:103E600001095D46002357F8041B28688AB29A1A94
:103E70000B0C12FA80F2C3EB104303EB224392B215
:103E800042EA0342BA4545F8042B4FEA2343EAD2FB
:103E90005BF828200BEB880382B91A1F93450BD2DD
:103EA00053F8042C42B9083B02E01A68043B1AB9E3
:103EB0009B4508F1FF38F8D3C4F81080484603B09A
:103EC000BDE8F08F002070472DE9F04F016C9BB0EA
:103ED0000446279E92469B4641B1426C4A600123AC
:103EE00093408B6002F004F800232364BBF1000FC1
:103EF0005D4635DB002333609D4BAB4315D0504608
:103F000059460022002303F0D3FB804600282DD021
:103F1000269A01231360289B002B00F0BD80954852
:103F2000186001381BB0BDE8F08F269A42F20F737B
:103F30001360BAF1000F0DD1C5F3130555B9289BD5
:103F40008D48002BEED000F10803289A13601BB0B7
:103F5000BDE8F08F289B8948002BE3D0C31CF4E711
:103F600001232BF000453360AB46C5E718AA19AB17
:103F70000192009352465B46204602F031FA2B0D27
:103F8000814671D0CBF3130242F07F51189FCDF8D8
:103F900050805046A3F2FF3641F440110022784B86
:103FA00002F06AFF6CA3D3E9002303F019F96CA3B4
:103FB000D3E9002302F062FFCDE90201304603F0AD
:103FC000A9F869A3D3E9002303F00AF902460B46D6
:103FD000DDE9020102F052FFCDE9040103F0B0FB7C
:103FE000002202900023DDE9040103F06BFB0028AE
:103FF00040F07381029D162D00F25D81614B03EB51
:10400000C503D3E9000152465B4603F079FB002863
:1040100000F0C5816B1E029300230E93BF1B7B1E15
:10402000069300F1548100230893029B002BC0F2F9
:104030004581069A0D9311461944002306910C936D
:10404000249B092B2AD8052B40F35B86043B249341
:104050000025249B023B032B00F24286DFE813F08D
:10406000D403C902DF036104189F199E3E4406F27F
:104070003243202B40F38E81C3F1400306F21240FD
:104080009D402AFA00F0284303F034F80123013E52
:10409000A1F1F871149381E73B4843E70021616483
:1040A0002046259101F0FEFE4FF0FF330A93259A3A
:1040B0000F9301230490206424920B93199B002BEF
:1040C000C0F2D980029A0E2A00F3D5802D4B03EB63
:1040D000C203D3E90023CDE90823259B002BC0F2BE
:1040E000BA83DDE9085650462A463346594603F05E
:1040F000A1F903F025FB804603F00CF82A4633466D
:1041000003F06EF80B4602465946504602F0B4FEE4
:10411000049D08F130032B700A9B012B06460F46C5
:1041200005F1010568D00022184B03F059F8002270
:10413000002306460F4603F0BBFA002840F08880B3
:10414000CDF82C904FF0000ADFF840B00C94DDE978
:10415000088928E0AFF3008061436F63A787D23FEF
:10416000B3C8608B288AC63FFB799F501344D33F66
:104170000000F07F597B40007C7B4000887B400042
:104180000000F83FB87B4000587B4000000024400E
:1041900003F026F80022002306460F4603F088FAB3
:1041A000002840F0C18342464B463046394603F072
:1041B00041F903F0C5FA044602F0ACFF42464B4613
:1041C00003F00EF802460B463046394602F054FE24
:1041D00004F1300E049E05F801EBA5EB060E0A9ED5
:1041E000B645CDE9060152465B46D1D1A046DDF881
:1041F0002C900C9C06460F4632463B4630463946CC
:1042000002F03CFE06460F4602460B46DDE9080179
:1042100003F058FA48B932463B46DDE9080103F09D
:1042200047FAA8B118F0010F12D015F8018C049AC2
:104230006B1E04E09A4200F0018413F8018DB8F17E
:10424000390F03F10105F5D008F1010883F800806A
:104250004946204601F04CFE0022029B2A70269A15
:1042600001331360289B002B00F09E8304981D608F
:104270001BB0BDE8F08F0B9A002A3ED0249A012A89
:1042800040F311830A9B0C9A5F1EBA42C0F28F83DF
:10429000D71B0A9B002BC0F28B84089D0A9B089AAF
:1042A0001A440892069A01211A442046069201F007
:1042B000B9FE064624E001230E93AFE6089A029B5E
:1042C000D21A5B420C93002308920D93B8E6C7F113
:1042D0000103089300230693A7E6029D284602F0F7
:1042E00019FF02460B46DDE9040103F0E1F900285D
:1042F0007FF480AE6B1E02937CE60C9F089D0B9EA4
:10430000002D0CDD069900290B4608DDA942089A0C
:10431000A8BF2B46D21AED1ACB1A089206930C9B13
:10432000D3B10B9B002B00F0B782002F10DD31467C
:104330003A46204601F012FF4A460146064620460C
:1043400001F07AFE49468046204601F0D1FDC14683
:104350000C9BDA1B40F0A1820121204601F062FE95
:104360000D9B002B80461CDD01461A46204601F0BD
:10437000F5FE249B012B804640F3548200230C93CE
:10438000D8F8103008EB8303186901F0FBFDC0F189
:10439000200010E0C3F120050AFA05F074E60E9043
:1043A0003CE6249B012B40F3878200230C930D9B5A
:1043B0000120002BE4D1069A104410F01F0000F0F9
:1043C000A180C0F12003042B40F39E84089BC0F120
:1043D0001C00034408931346034405440693089BBA
:1043E000002B05DD49461A46204601F007FF8146AD
:1043F000069B002B05DD41461A46204601F0FEFED5
:1044000080460E9B002B40F086800A9B002B40F3D9
:1044100066820B9B002B00F09880002D05DD314655
:104420002A46204601F0EAFE06460C9B002B40F08F
:10443000378306960A9B049ADDF818B0013BD3181F
:104440000B930AF001030C931746C24651464846A7
:10445000FFF7A6FC31460546484601F021FF5A46C3
:104460000A905146204601F037FFC268804605F1A8
:104470003003002A40F02B8201464846089301F0A1
:104480000FFF41460690204601F032FD069A089B38
:1044900032B9249921B90C9A002A00F0EF83249AAA
:1044A0000A990029C0F29F8205D1249919B90C9963
:1044B000002900F09882002A00F306830B9A3B70D3
:1044C00007F101089742454600F00C834946002356
:1044D0000A22204601F016FD5E45814631464FF026
:1044E00000034FF00A02204600F0EB8101F00AFDC4
:1044F0005946064600230A22204601F003FD47469E
:104500008346A3E71C20089B03440893069B0344AF
:104510000544069363E74146484601F0C1FE002882
:10452000BFF673AF029F494600230A222046013F8F
:10453000029701F0E7FC0B9B8146002B40F0B6830D
:104540000F9B002B40F3BF830A93DDF810B00A9F46
:104550005D4602E001F0D6FC814641464846FFF741
:104560001FFC00F1300A05F801ABA5EB0B03BB42C1
:104570004FF00A024FF0000349462046EADB049B55
:104580000A9A012AACBF9B1801331D464FF0000B5D
:1045900049460122204601F031FE4146814601F0A4
:1045A0007FFE002840F33D8215F8012C04996B1E14
:1045B00004E08B4200F0AE8113F8012D392A03F19B
:1045C0000105F6D001321A704146204601F090FCF8
:1045D000002E3FF43DAEBBF1000F05D0B34503D034
:1045E0005946204601F084FC3146204601F080FC0B
:1045F0002EE600230B93029B259A13440F9301335D
:10460000012B1F461E460A93B8BF01270021172F12
:1046100061640AD9012204235B0003F1140087427C
:10462000114602F10102F7D26164204601F03AFC22
:104630000E2E049020643FF641AD002D3FF43EADB8
:1046400002990029CDE910AB40F30282B84B01F08A
:104650000F020D1103EBC203E906D3E9006740F135
:10466000AE81B44B50465946D3E9082302F0E2FE2E
:10467000CDE9120105F00F054FF0030A8DB1DFF807
:10468000B482EA0709D530463946D8E9002302F05A
:10469000A7FD0AF1010A06460F466D1008F1080849
:1046A000EFD13B463246DDE9120102F0C3FE074678
:1046B00088460E9B43B100229F4B3846414603F08B
:1046C00001F8002840F08682504602F023FD3A4669
:1046D000434602F085FD994B002202F0CFFB0A9B76
:1046E0000546A1F15076002B00F03E81029B159308
:1046F0000A9B12930B9B002B00F0FA81129A8C4BB1
:104700008F4903EBC20353E90223002002F092FE1B
:104710002A46334602F0B0FB82468B463846414675
:1047200003F00EF8054602F0F5FC02460B4638464B
:10473000414602F0A1FB30355FFA85F8049D06463C
:104740000F4685F8008002460B4650465946013513
:1047500002F0D6FF002854D132463B46002076496D
:1047600002F08AFB02460B465046594602F0C8FF4B
:10477000002840F07082129A012A00F01181129BE9
:10478000049ACDF84890134499460DE000206A49F8
:1047900002F072FB52465B4602F094FF002840F0A4
:1047A00058824D4500F0FA80504659460022654B2C
:1047B00002F016FD0022634B82468B463046394696
:1047C00002F00EFD0F46064602F0BAFF804602F0E8
:1047D000A1FC02460B463046394602F04DFB08F17B
:1047E00030085FFA88F852465B4605F8018B0646AA
:1047F0000F4602F067FF32463B460028C6D0DDF880
:104800004890159B029323E500230B93259B002BD7
:1048100040F3DC801F461E460F930A93F6E6012301
:104820000B93F3E7BAF1000F7FF4A8ADCBF31303BA
:10483000002B7FF4BAAD2BF000473F0D3F05002F52
:1048400000F00D82089B01330893069B0133069309
:1048500001230C93ABE50A9B002B3FF742AC40F0E1
:1048600021820022384BDDE9080102F0B9FC5246F2
:104870005B4602F03BFFDDF828804646002841D029
:10488000259B049DDB4302934146204601F030FB0B
:10489000002E3FF4DDACA7E60C9A4946204601F015
:1048A0005DFC814658E5149A002A00F0878103F2E6
:1048B00033430C9F089DF2E4BAF1000F7FF475AD0D
:1048C000B4E701F01FFB474606468346BEE50146B6
:1048D0002046069301F00CFB0122069BE0E5249B99
:1048E000022B7FF796AD0A9B002BC9D141460522CA
:1048F000204601F007FB01468046484601F0D0FC07
:104900000028BDDD029A04993123013202920B7016
:104910004D1CB9E7029A01320292049A31231370B6
:1049200052E601230B9366E6DDF82C900C9C8FE495
:10493000B87B4000907B40000000F03F00001C402E
:104940000000E03F0000244000001440504602F008
:10495000E1FB3A46434602F043FC0022C14B02F021
:104960008DFA0546A1F1507641460022BE4B3846ED
:1049700002F082FA2A46334682468B4602F0C0FE97
:104980008046002840F010812A4606F10043504638
:10499000594602F097FE18B1464671E7DDF8489097
:1049A000DDE910ABFFF78ABB0498FFF7BBBA0C9B9D
:1049B0000D9A0C97FB1A1A440D92002769E4DDE961
:1049C00010234FF0020ACDE9122357E600210123FC
:1049D00061642046259301F065FA259B04902064CC
:1049E0000A930F9329E6002AD046CDF818B09A46CC
:1049F00011DD49460122204601F000FC4146814676
:104A000001F04EFC002840F34681BAF1390F00F066
:104A1000068105F1310AB34687F800A07D1C069E89
:104A2000D2E504D11AF0010F01D0BDE5154615F805
:104A3000013C302B05F1FF32F8D0C5E50499302256
:104A40000A70029A15F8018C01320292FFF7FCBB42
:104A500000F0BB80029B5D42844B05F00F0203EB2C
:104A6000C203D3E90023DDE9100102F0B9FB2D11E7
:104A70000746884600F02C817D4E4FF0020AEB0776
:104A800009D538464146D6E9002302F0A9FB0AF1D0
:104A9000010A074688466D1006F10806EFD108E6C0
:104AA0007168204601F0FEF9336902339A00054629
:104AB00006F10C010C3001F0EBF8294601222046EA
:104AC00001F09CFB0690B5E4392BCDF818B0D04628
:104AD00000F0A58003F1010AB34687F800A07D1C11
:104AE000069E71E55A46D046B3469A4616464FE5AD
:104AF000129B5E4901EBC3012A46334651E902018C
:104B000002F06EFBCDE916013846414602F018FE70
:104B1000054602F0FFFA0B4602464146384602F0CF
:104B2000ABF9129B0F4604993035012B0D700646E8
:104B300001F1010526D0129B049ADFF83CB1CDF8B3
:104B4000489013444FF0000A994652465B4630465F
:104B5000394602F045FB0F46064602F0F1FD80465D
:104B600002F0D8FA08F1300802460B4630463946C2
:104B700002F082F905F8018B4D4506460F46E4D157
:104B8000DDF848903B4B0022DDE9160102F076F992
:104B900032463B4602F096FD002846D0159B029314
:104BA00015F8018CFFF743BB4FF000084646A9E615
:104BB000089B0A9A9D1A0023FFF771BB189B0C9F54
:104BC000089DC3F13603FFF76ABBDDE910784FF0AB
:104BD000020A6EE50A9B002B3FF4B8AE0F9B002B38
:104BE0007FF7DEAE0022244B3846414602F0F8FA49
:104BF000074688460AF1010002F08CFA3A4643461D
:104C000002F0EEFA0022174B02F038F9029A0F9BDD
:104C10001293013A0546A1F1507615926AE53922C0
:104C2000B3463A70069E7D1CC0E4DDE916230020E1
:104C3000104902F021F932463B4602F061FD08B905
:104C4000AEE6154615F8013C302B05F1FF32F8D0E1
:104C5000D7E5DDF84890159B0293FFF7E8BA0C976B
:104C6000FFF7A5BB00001C4000001440B87B4000CB
:104C7000907B40000000E03F00002440392BCDF83D
:104C800018B0D046DDF828B09A46C8D0BBF1000F66
:104C90003FF7BFAEBFE67FF4BEAE1AF0010F3FF4A0
:104CA000BAAEB2E64FF000084646E9E531460023C9
:104CB0000A22204601F026F90F9B002B06460ADD4A
:104CC0000A93FFF7AABB249B022B23DC0F9B3BE438
:104CD0004FF0020AEDE4249B022B1BDC0F9BEFE755
:104CE000002565642946204601F0DCF84FF0FF33CB
:104CF0000A930F9301230490259520640B93FFF7EB
:104D0000DDB90125FFF7A5B93FF469ABC0F13C005F
:104D1000FFF7F9BB0F9B0A93E5E500BFB1F90C3033
:104D20009AB22DE9F0410D46110780463AD46A68DF
:104D300043F40063002AAB816FDDAC6A002C49D0DC
:104D400000229BB2D8F80060C8F8002013F480520B
:104D500067D02A6D5F0705D569682B6B521A0BB1B6
:104D6000EB6BD21A0023E9694046A047441C3CD0B3
:104D7000B5F90C302A692A6023F400630022AB8164
:104D8000DB046A6047D4296BC8F8006011B305F1F1
:104D90004003994202D0404600F05AF900202863AF
:104DA000BDE8F0812E69AEB12C682E6091070CBF72
:104DB0006B690023A41BAB600AE0234632466F6A8E
:104DC000E9694046B8470028A4EB0004064404DD26
:104DD000002CF2DC0020BDE8F081AB8943F04003F9
:104DE000AB814FF0FF30BDE8F081D8F800401D2CBA
:104DF000F3D8194BE340DB4313F00103EDD1B5F9D0
:104E00000C206B6022F400632969AB81DA0429600D
:104E1000B9D5002CB7D12865B5E7EA6B002A8CDC40
:104E2000D8E70123E9694046A047431C024602D067
:104E3000AB89AC6A8EE7D8F80030002BF8D01D2B78
:104E400001D0162B02D1C8F80060C3E7AB8943F04C
:104E50004003AB81BDE8F0810100402038B50D462C
:104E6000044608B1836BBBB1B5F90C0088B16B6E19
:104E7000DB0701D4810517D520462946FFF74EFFF1
:104E80006B6EDA07044602D4AB899B0507D5204632
:104E900038BD0446204638BD00F038F8E4E7A86D78
:104EA00000F072FB204638BDA86D00F06BFBE3E715
:104EB000014900F02BBB00BF996A400010B50023E8
:104EC00004468181C281036043608360436603615D
:104ED00043618361194608225C30FDF7EFF907480A
:104EE0000749084A084B2062E4616162A262E362FA
:104EF00004F15800BDE8104000F040BB09684000D4
:104F00002D684000696840008968400010B504467B
:104F1000124800F037FBA26BD2B904F53B7310487E
:104F2000C4F8E8320321C4F8E022E063C4F8E412D4
:104F300060680421FFF7C2FF01220921A068FFF782
:104F4000BDFF02221221E068FFF7B8FF0123A3632F
:104F50000248BDE8104000F017BB00BF980A40208F
:104F6000B14E4000014800F00DBB00BFAC0A40202C
:104F7000014800F009BB00BFAC0A402038B50A4C1C
:104F80000A4D641BA4100AD004F18043013B05EBD9
:104F90008305013C55F804399847002CF9D1BDE848
:104FA000384002F007BF00BFC47D4000C07D400014
:104FB000F8B5244F0C46064600F068FFBB685D68F4
:104FC000C4F57E610F3125F00305294421F47F618A
:104FD00021F00F01A1F58054B4F5805F07DB0021BB
:104FE000304601F0FFFBBB682B44984204D03046AA
:104FF00000F052FF0020F8BD6142304601F0F2FBA4
:1050000001300DD0104BBA6819682D1B45F0010511
:105010003046091B5560196000F03EFF0120F8BDC5
:105020000021304601F0DEFBBA68831A0F2BDEDD6B
:10503000064C0549246843F00103001B53600860D7
:10504000D5E700BF3C0440204C0A402044084020E3
:10505000002944D02DE9F0410D46804600F016FFAE
:1050600055F8047C694927F00103A5F10804E2180A
:105070008E685068B24220F003005ED0FE07506098
:105080000BD455F8087CE41B01F1080EA5687545A2
:105090003B446DD0E768EF60BD6015186D68ED07A3
:1050A0003ED543F001026260E350B3F5007F17D2B2
:1050B000DB08581C9A104D6851F83070A760012326
:1050C000934001EBC0022B43083AE2604B6041F889
:1050D0003040FC604046BDE8F04100F0DDBE704766
:1050E0005A0A042A52D89A0902F13907FF0002F13C
:1050F0003805C819CA59083890424FD0516821F074
:1051000003018B4232D292689042F7D1C368A0600B
:10511000E3609C60C4604046BDE8F04100F0BCBE66
:1051200095683B4FBD42034440D0D068E86043F0EF
:10513000010285606260E350B7E7FF07034407D4CC
:1051400055F8082CA41A1344A068E268C260906065
:10515000304A126843F00100934260608C60B9D31A
:105160002D4B40461968FFF723FFB3E71046CDE704
:1051700011184968C90744D49168D268CA600344C9
:1051800043F0010091606060E350A3E7142A16D851
:1051900002F15C07FF0002F15B05AAE7AA100123F8
:1051A0004D6893402B434B600346B0E743F0010248
:1051B0004C610C61E560A5606260E3508AE7542AA7
:1051C00006D81A0B02F16F07FF0002F16E0590E797
:1051D000B2F5AA7F06D8DA0B02F17807FF0002F1D8
:1051E000770586E740F25450824206D89A0C02F1C5
:1051F0007D07FF0002F17C057BE74FF47E777E257B
:1052000077E743F001016160136063E73C044020ED
:1052100044044020480840207C0A40209368002B2A
:1052200073D02DE9F04F8B8983B00C46190700909D
:10523000164626D5226922B313F0020035682CD019
:105240004FF00009B04FC846B246B84543464A46FB
:1052500028BF3B460098B8F1000F50D0E169666A5C
:10526000B047002858DDDAF808301B1A8144A8EB53
:105270000008CAF80830002BE7D1002003B0BDE8D1
:10528000F08F21460098FEF717FD002840F033818B
:10529000A389356813F00200D2D113F0010945D17A
:1052A0004F46019637B39A05D4F8088040F18380C1
:1052B0004745C346C0F0AB8013F4906F40F0AC801C
:1052C0002068BA465A46494600F07CFDA268236829
:1052D000A2EB08025B44A2602360019A9368A3EBEF
:1052E0000A03D144A7EB0A079360002BC5D0A3891A
:1052F000002FD8D1D5F800906F680835D2E7D5F8DF
:105300000090D5F8048008359FE7002070472146BB
:105310000098FFF7A3FD70B3B4F90C3043F04003DD
:105320004FF0FF30A38103B0BDE8F08F81463346D4
:105330004E46A8469A464D464EB380B32068236930
:105340006269B145CB4628BFB34698425F4604D94F
:10535000A36813449B4500F3A68093454BDB13469B
:10536000676AE16900982A46B847071ED4DDB9EBA1
:105370000709CCD00120DAF80830DB1B3D44F61BCE
:10538000CAF80830002B3FF478AF002ED5D108F1D1
:10539000080313E9600098460833002EF9D032461E
:1053A0000A21284600F024FC002800F0A1800130EA
:1053B000A0EB0509C2E720682369984202D8636917
:1053C0009F425DD2B84528BFB8464246494600F0E4
:1053D000F9FCA3682268A3EB08034244A36022609F
:1053E0000BB1C24679E721460098FFF737FD002848
:1053F00092D1C24671E75A46294600F0E3FCA26802
:105400002368A2EB0B025B44A2602360AFE7206835
:10541000B846BA46BB4655E762692068216902EB87
:105420004208A0EB010A08EBD8780AF101004FEA24
:10543000680838444045424684BF804642465B0582
:1054400044D51146009800F021F98346002855D034
:105450005246216900F01CFCA38923F4906343F0B9
:105460008003A3810BEB0A00A8EB0A03C4F810B079
:10547000C4F814802060A360B846BA46BB4621E752
:105480006FF00041B94228BF39464A4691FBF3F11B
:105490000098666A03FB01F3E169B047B0F1000AC6
:1054A0003FF71BAF38E71A462946019300F08AFC04
:1054B0002268019B00981A4422602146FFF7CEFC27
:1054C000019B00287FF428AF1F4650E7009800F0AA
:1054D000E3FF83460028C5D1009D21692846FFF7D8
:1054E000B7FDB4F90C300C2223F080032A6015E7D5
:1054F00006F1010922E74FF0FF30BFE6009A0C23C6
:105500001360B4F90C3009E700FCFF7F2DE9F84384
:1055100010F538771FD0884606464FF000097D68A1
:10552000BC68013D11D4A389012B05F1FF3508D9D1
:10553000B4F90E3001332146304602D0C04749EA63
:1055400000096B1C04F16804EDD13F68002FE6D11F
:105550004846BDE8F883B9464846BDE8F88300BF31
:10556000044A054B1268506B002808BF1846F030FB
:10557000704700BF080040204C084020704700BF23
:10558000704700BF704700BF704700BF70B50C4642
:10559000B1F90E10002990B015461E4614DB01AA81
:1055A00001F060FB00280FDB029A02F47042A2F5C2
:1055B0000052B2FA82F252094FF480634FF4006055
:1055C00032602B6010B070BDA289002312F0800001
:1055D000336004D0402218462A6010B070BD4FF4EA
:1055E00080632B6010B070BD8A8992070B4606D588
:1055F00001F1430201211A601A6159617047F0B547
:1056000083B001AB6A460C460646FFF7BFFF009920
:105610000546304600F03AF8B4F90C30D8B1019A9A
:10562000154F0099F76343F08003A3812060206148
:1056300061611AB92B43A38103B0F0BD3046B4F9C0
:105640000E1001F023FBA0B1A38923F0030343F064
:1056500001031BB2EEE79A05EED423F0030304F135
:10566000430243F002030121A381226022616161B0
:10567000E2E7B4F90C30DDE7B14E4000024B0146E1
:10568000186800F003B800BF080040202DE9F04F73
:1056900001F10B06162E83B0054640F29E8036F0CF
:1056A000070600F1BD80B14200F2BA8000F0EEFBC7
:1056B000B6F5FC7FC0F09382730A00F0B880042B2B
:1056C00000F27981B30903F1390003F1380EC30008
:1056D000BF4F3B44A3F108015C68A14206D10CE036
:1056E000002A80F2AA80E468A14206D0636823F011
:1056F00003039A1B0F2AF3DD70463C69DFF8E4E2EE
:10570000744500F0AB81636823F003039A1B0F2AF2
:1057100000F39081002AC7F814E0C7F810E080F287
:105720009D80B3F5007F80F06181DB0803F1010CFF
:1057300099107A6857F83C80C4F8088001238B40A0
:1057400007EBCC0113430839E1607B6047F83C402C
:10575000C8F80C408210012494409C4200F28B80D7
:105760001C4206D120F0030064001C4200F104003A
:10577000FAD007EBC009CC468046DCF80C309C45DB
:1057800007D16DE1002A80F27B81DB689C4500F047
:105790006781596821F003018A1B0F2AF2DDD3F8D3
:1057A0000CC0D3F8088000939C19284646F00106E7
:1057B00042F001055E60C8F80CC0CCF808807C613E
:1057C0003C61C4F80CE0C4F808E065605A5000F091
:1057D00063FB009B03F108041EE0102920D800F0B1
:1057E00055FB102618230220794F3B44A3F10802F1
:1057F0005C68944200F03D816368E168A66823F02C
:105800000303234428465A68F16042F001028E6087
:105810005A6000F041FB0834204603B0BDE8F08F29
:1058200000240C2320462B6003B0BDE8F08F4020FD
:105830004FF400734FF03F0E4AE72344E1685A6883
:10584000A66842F00102F16028468E605A6000F0BE
:1058500023FB0834204603B0BDE8F08F23442846DC
:105860005A6842F001025A6000F016FB08342046E4
:1058700003B0BDE8F08FBC68636823F00308B0454F
:1058800004D3A8EB06030F2B00F38580DFF85891B3
:10589000504BD9F800201B680132334404EB080A4E
:1058A00000F0558103F580530F3323F47F6B2BF009
:1058B0000F0B5946284600F095FF411C024600F0A8
:1058C000FC80824500F2F780434B19685944196007
:1058D00000F04D81D9F8000001301BBFA2EB0A0A8D
:1058E0005144C9F80020196012F0070100F0158139
:1058F000C1F10800C1F580510244083102EB0B09E7
:10590000C9F30B09A1EB0909494628460193009206
:1059100000F068FF431C9DE80C0000F04381801AF2
:10592000484440F001001968BA604944BC425060E4
:10593000196017D0B8F10F0F40F2FB806068A8F132
:105940000C0222F0070204EB020E00F001004FF0FF
:10595000050C10430F2A6060CEF804C0CEF808C0D2
:1059600000F217811D4BBC681A68914288BF19600C
:105970001B4B1A689142626888BF196022F00302CB
:105980009642A2EB060301D80F2B04DC284600F058
:1059900083FA002440E7A21943F0010346F0010610
:1059A00066602846BA60536000F076FA08342046F4
:1059B00003B0BDE8F08F142B71D9542B00F2A380F3
:1059C000330B03F16F0003F16E0EC30080E600BFDE
:1059D0003C0440207C0A40204C0A4020740A4020AD
:1059E000780A402044044020440840205A0A042AEF
:1059F0005BD9142A00F2AE8002F15C01C9005B326F
:105A000007EB010C7958ACF1080C8C4500F088804C
:105A10004A6822F00302934273D289688C45F7D119
:105A2000DCF80C207B68E260C4F808C09460CCF815
:105A30000C408FE6A11946F0010C42F00106C4F8B3
:105A400004C0284679613961C1F80CE0C1F808E06A
:105A50004E60E25000F020FA0834DDE67B6879E61B
:105A600008F1010818F0030F0CF1080C7FF485AE63
:105A70002DE0DC68A34208BF02303FF43EAEBBE637
:105A800019441C464A68DB6854F8086F42F001026A
:105A90004A602846F3609E6000F0FEF9BCE603F120
:105AA0005C0003F15B0EC30012E69A0902F13901B2
:105AB000C9003832A4E7BC4254D0BC68626822F006
:105AC00003025DE759F80839994540F0868010F0E7
:105AD000030F00F1FF30F5D17B6823EA04037B60FC
