S01F000054657374655F506C6163615F53414D6537302D58504C442E737265634F
S214400000F0E640207D7240002D7340002D73400086
S2144000102D7340002D7340002D73400000000000FB
S214400020000000000000000000000000DD0440006A
S2144000302D73400000000000AD064000150740004C
S2144000402D7340002D7340002D7340002D734000EB
S2144000502D7340002D7340002D7340002D734000DB
S2144000602D734000000000003D6C4000556C400081
S2144000706D6C40002D7340002D7340002D73400082
S214400080856C40009D6C40002D7340002D734000F1
S2144000902D7340002D7340002D7340002D7340009B
S2144000A0557C40002D7340002D7340002D7340005A
S2144000B02D734000615840002D7340002D73400062
S2144000C02D7340002D7340002D7340002D7340006B
S2144000D02D7340002D7340002D7340002D7340005B
S2144000E0755840002D7340002D7340002D7340001E
S2144000F02D7340002D7340002D7340002D7340003B
S2144001002D7340002D7340002D7340002D7340002A
S2144001102D734000000000000000000000000000BA
S2144001202D7340002D7340002D7340002D7340000A
S2144001302D7340002D7340002D7340002D734000FA
S2144001402D7340002D7340002D7340002D734000EA
S2144001502D7340002D7340002D7340002D734000DA
S2144001602D7340002D73400010B5054C237833B9ED
S214400170044B13B10448AFF300800123237010BD35
S214400180D0094020000000007C4343000C4B43B1A4
S2144001900C480D4910B5AFF300800C48036823B9EE
S2144001A010BD0A48036833B97047094B002BF7D097
S2144001B0BDE810401847064B002BF5D0184700BF47
S2144001C0000000007C434300D40940207C434300A9
S2144001D00000000086B0039002910192039A029BB1
S2144001E09B0113440593059B02221A60059B4FF022
S2144001F0FF329A62059B1B6A059B019A5A6000BFB4
S21440020006B0704782B001900091019A009B9B0116
S214400210134405221A6000BF02B0704784B00390B2
S21440022002910192039A029B9B0113441C33019A4C
S2144002301A6000BF04B0704786B0039002910192E6
S214400240039A029B9B0113440593059B019A5A62AD
S21440025000BF06B0704784B001900091019A009BA1
S2144002609B0113440393039B1B6A184604B07047D4
S2144002708CB00390029101920093022304930823CA
S214400280059320230693802307930C9BDB0B089350
S21440029000230B9319E00B9B9B000CAA134453F8C6
S2144002A0203C029AB2FBF3F30A930A9B1B0C099379
S2144002B0039A0A9B9A4201D9002322E0039A099B9B
S2144002C09A4206D20B9B01330B930B9B042BE2D92D
S2144002D000E000BF0B9B042B01D9002311E0019BDB
S2144002E0002B07D00B9B9B000CAA134453F8202CE2
S2144002F0019B1A60009B002B02D0009B0B9A1A6051
S214400300012318460CB0704782B00190019B03F160
S2144003100802019B5A60019B4FF0FF329A60019B96
S21440032003F10802019BDA60019B03F10802019B7E
S2144003301A61019B00221A6000BF02B0704782B06B
S2144003400190019B00221A6100BF02B0704784B042
S21440035001900091019B5B680393009B039A5A604F
S214400360039B9A68009B9A60039B9B68009A5A601E
S214400370039B009A9A60009B019A1A61019B1B6836
S2144003805A1C019B1A6000BF04B0704784B00190AD
S2144003900091009B1B680293029BB3F1FF3F03D181
S2144003A0019B1B6903930CE0019B0833039302E017
S2144003B0039B5B680393039B5B681A68029B9A42A5
S2144003C0F6D9039B5A68009B5A60009B5B68009A6C
S2144003D09A60009B039A9A60039B009A5A60009B1F
S2144003E0019A1A61019B1B685A1C019B1A6000BF48
S2144003F004B0704784B00190019B1B690393019B36
S2144004005B68019A92689A60019B9B68019A526861
S2144004105A60039B5A68019B9A4203D1019B9A6893
S214400420039B5A60019B00221A61039B1B685A1E5D
S214400430039B1A60039B1B68184604B07047000075
S21440044084B0039002910192039B043B0393039B69
S2144004504FF080721A60039B043B0393029A039BFF
S2144004601A60039B043B03930B4A039B1A60039B4F
S214400470143B0393019A039B1A60039B043B03932C
S214400480039B6FF002021A60039B203B0393039B7F
S214400490184604B0704700BF9D04400082B00E4B23
S2144004A01B68B3F1FF3F0BD04FF0800372B683F367
S2144004B01188BFF36F8FBFF34F8F62B60193FEE78D
S2144004C04FF0800372B683F31188BFF36F8FBFF38C
S2144004D04F8F62B60093FEE70C004020064B19682B
S2144004E00868B0E8F04F80F30988BFF36F8F4FF08D
S2144004F0000080F311887047FCC1402000BF704761
S21440050006480068006880F3088862B661B6BFF3A4
S2144005104F8FBFF36F8F00DF00BF00BF08ED00E0D6
S21440052000B585B02E4B0393039B1B78DBB202933A
S214400530039BFF221A70039B1B78DBB28DF80730B3
S2144005409DF80730DBB223F07F03DAB2254B1A70F2
S214400550254B07221A600BE0234B1B68013B224ABF
S21440056013609DF80730DBB25B00DBB28DF80730D6
S2144005709DF80730DBB203F08003802BECD01A4B9B
S2144005801B681B02184A1360174B1B6803F4E06392
S214400590154A1360029BDAB2039B1A70134A134B38
S2144005A01B6843F460031360104A104B1B6843F00B
S2144005B0604313600E4B98470E4B00221A600E4B5A
S2144005C098470E4A0D4B1B6843F0404313600C4B54
S2144005D098470C4B98470023184605B05DF804FB37
S2144005E000E400E0EC094020F009402020ED00E067
S2144005F0610740000C0040207D07400034EF00E0DB
S214400600010540009D04400082B04FF0800372B662
S21440061083F31188BFF36F8FBFF34F8F62B601939A
S2144006200E4B1B6801330D4A13600C4B1B68012BA5
S21440063010D10B4B1B68DBB2002B0BD04FF0800366
S21440064072B683F31188BFF36F8FBFF34F8F62B6D6
S2144006500093FEE700BF02B0704700BF0C0040208A
S21440066004ED00E082B0104B1B68002B0BD14FF01E
S214400670800372B683F31188BFF36F8FBFF34F8F3B
S21440068062B60193FEE7084B1B68013B064A1360BF
S214400690054B1B68002B04D100230093009B83F37B
S2144006A0118800BF02B070470C004020EFF309806D
S2144006B0BFF36F8F154B1A681EF0100F08BF20ED62
S2144006C0108A20E9F04F10604DF8043D4FF080004E
S2144006D072B680F31188BFF34F8FBFF36F8F62B649
S2144006E001F0C2F94FF0000080F3118808BC196889
S2144006F00868B0E8F04F1EF0100F08BFB0EC108A44
S21440070080F30988BFF36F8F704700BFFCC140205D
S21440071000BF704700B585B0EFF311824FF08003FD
S21440072072B683F31188BFF36F8FBFF34F8F62B6F5
S21440073003920293084B98470346002B03D0074B7F
S2144007404FF080521A6000230193019B83F3118877
S21440075000BF05B05DF804FBCD18400004ED00E096
S214400760034B044A1A60044B07221A6000BF7047C6
S21440077014E000E07FA9030010E000E0DFF80C0082
S214400780016841F470010160704700BF88ED00E0E9
S21440079084B0EFF305830393039B0F2B17D9174AB7
S2144007A0039B13441B788DF80B30154B1B789DF834
S2144007B00B209A420BD24FF0800372B683F3118817
S2144007C0BFF36F8FBFF34F8F62B60193FEE70D4BBB
S2144007D01B6803F4E0620C4B1B689A420BD94FF03F
S2144007E0800372B683F31188BFF36F8FBFF34F8FCA
S2144007F062B60093FEE700BF04B07047F0E300E047
S214400800EC0940200CED00E0F009402000B585B032
S214400810019000230393019B03F00703002B04D0B1
S214400820019B23F00703083301931A4B98471A4B52
S2144008301B68002B05D1194B23F007031A46164BAD
S2144008401A60174B1A68019B13444BF2F772934297
S21440085013D8134B1A68019B1A44114B1B689A42D3
S2144008600BD90D4B1A680E4B1B68134403930C4B65
S2144008701A68019B13440A4A13600A4B9847039B25
S214400880002B01D1084B9847039B184605B05DF8EE
S21440089004FB00BF69174000F8C14020FC09402017
S2144008A0F4C140207D174000397C400084B0019060
S2144008B0019B002B0BD04FF0800372B683F3118858
S2144008C0BFF36F8FBFF34F8F62B60393FEE700BF51
S2144008D004B0704700B585B001900091019B03932A
S2144008E0039B002B0BD14FF0800372B683F3118825
S2144008F0BFF36F8FBFF34F8F62B60293FEE7284B6E
S2144009009847039B1A68039BDB6B0399096C01FBB2
S21440091003F31A44039B5A60039B00229A63039B8B
S2144009201A68039B9A60039B1A68039BDB6B013B28
S2144009300399096C01FB03F31A44039BDA60039B9B
S2144009404FF0FF325A64039B4FF0FF329A64009B8D
S214400950002B14D1039B1B69002B1AD0039B10332A
S2144009601846104B98470346012B12D10E4B4FF0BA
S21440097080521A60BFF34F8FBFF36F8F09E0039B1F
S21440098010331846094B9847039B24331846074BA9
S2144009909847074B98470123184605B05DF804FB77
S2144009A009064000CD1C400004ED00E0090340006D
S2144009B06506400000B58BB00390029113468DF853
S2144009C0073000230893039B002B0BD14FF0800386
S2144009D072B683F31188BFF36F8FBFF34F8F62B643
S2144009E00693FEE7029B002B02D10023099305E005
S2144009F0039B029A02FB03F301330993099B583386
S214400A0018461D4B98470790079B002B1FD0029B0C
S214400A10002B03D1079B079A1A6004E0079B03F15B
S214400A205802079B1A60079B039ADA63079B029A51
S214400A301A6401210798114B9847079B9DF8072099
S214400A4083F85020079B00225A65079B0893089B13
S214400A50002B0BD14FF0800372B683F31188BFF39F
S214400A606F8FBFF34F8F62B60593FEE7089B18461D
S214400A700BB05DF804FB00BF0D084000D5084000F1
S214400A8000B58FB0039002910192009300230D931E
S214400A90039B0C930C9B002B0BD14FF0800372B63C
S214400AA083F31188BFF36F8FBFF34F8F62B60A93FD
S214400AB0FEE7029B002B03D10C9B1B6C002B01D145
S214400AC0012300E00023002B0BD14FF0800372B6C9
S214400AD083F31188BFF36F8FBFF34F8F62B60993CE
S214400AE0FEE7009B022B03D10C9BDB6B012B01D155
S214400AF0012300E00023002B0BD14FF0800372B699
S214400B0083F31188BFF36F8FBFF34F8F62B608939E
S214400B10FEE7614B98470346002B02D1019B002B12
S214400B2001D1012300E00023002B0BD14FF08003BE
S214400B3072B683F31188BFF36F8FBFF34F8F62B6E1
S214400B400793FEE7554B98470C9B9A6B0C9BDB6BC9
S214400B509A4202D3009B022B3DD1009A02990C98F0
S214400B604F4B98470B900C9B5B6D002B0FD000991A
S214400B700C984C4B98470346012B28D14A4B4FF0D4
S214400B8080521A60BFF34F8FBFF36F8F1FE00C9BEE
S214400B905B6A002B10D00C9B24331846434B984777
S214400BA00346012B13D1404B4FF080521A60BFF3DF
S214400BB04F8FBFF36F8F0AE00B9B002B07D03A4B4B
S214400BC04FF080521A60BFF34F8FBFF36F8F384B92
S214400BD0984701235BE0019B002B03D1344B984799
S214400BE0002354E00D9B002B05D105AB1846314B36
S214400BF0984701230D932E4B98472F4B9847274BEA
S214400C0098470C9B5B6CB3F1FF3F02D10C9B0022D4
S214400C105A640C9B9B6CB3F1FF3F02D10C9B0022A5
S214400C209A64234B984701AA05AB11461846234BB6
S214400C3098470346002B24D10C98214B98470346EF
S214400C40002B18D00C9B1033019A114618461D4BAA
S214400C5098470C981C4B98471C4B98470346002BCC
S214400C607FF470AF104B4FF080521A60BFF34F8F37
S214400C70BFF36F8F66E70C98134B9847134B984714
S214400C8060E70C98104B9847104B9847002318463F
S214400C900FB05DF804FB00BFF1214000090640009C
S214400CA0751040008913400004ED00E0CD1C400064
S214400CB065064000991D400069174000D91D400058
S214400CC09D124000711B4000A11140007D1740005E
S214400CD000B58FB00390029101920093039B0C9352
S214400CE00C9B002B0BD14FF0800372B683F3118818
S214400CF0BFF36F8FBFF34F8F62B60A93FEE7029B38
S214400D00002B03D10C9B1B6C002B01D1012300E070
S214400D100023002B0BD14FF0800372B683F311886B
S214400D20BFF36F8FBFF34F8F62B60993FEE7009B0A
S214400D30022B03D10C9BDB6B012B01D1012300E07E
S214400D400023002B0BD14FF0800372B683F311883B
S214400D50BFF36F8FBFF34F8F62B60893FEE72F4BFC
S214400D609847EFF311824FF0800372B683F31188F1
S214400D70BFF36F8FBFF34F8F62B607920693079B02
S214400D800B930C9B9A6B0C9BDB6B9A4202D3009B9B
S214400D90022B36D1009A02990C98214B98470C9B0F
S214400DA09B6CB3F1FF3F24D10C9B5B6D002B0DD0A9
S214400DB000990C981B4B98470346012B1ED1019B6C
S214400DC0002B1BD0019B01221A6017E00C9B5B6A2C
S214400DD0002B13D00C9B24331846134B98470346DE
S214400DE0002B0BD0019B002B08D0019B01221A60E0
S214400DF004E00C9B9B6C5A1C0C9B9A6401230D933D
S214400E0001E000230D930B9B0593059B83F311880C
S214400E100D9B18460FB05DF804FB00BF91074000DD
S214400E207510400089134000CD1C400000B58DB0C1
S214400E30039002910192009300230B93039B0A9325
S214400E400A9B002B0BD14FF0800372B683F31188B8
S214400E50BFF36F8FBFF34F8F62B60893FEE7029BD8
S214400E60002B03D10A9B1B6C002B01D1012300E011
S214400E700023002B0BD14FF0800372B683F311880A
S214400E80BFF36F8FBFF34F8F62B60793FEE76A4B91
S214400E9098470346002B02D1019B002B01D101232A
S214400EA000E00023002B0BD14FF0800372B683F393
S214400EB01188BFF36F8FBFF34F8F62B60693FEE77E
S214400EC05E4B98470A9B9B6B002B47D00A9BDB6880
S214400ED0099302990A985A4B9847009B002B22D1B7
S214400EE00A9B9B6B5A1E0A9B9A630A9B1B68002BA5
S214400EF004D1544B984702460A9B5A600A9B1B698A
S214400F00002B27D00A9B103318464F4B9847034672
S214400F10012B1FD14D4B4FF080521A60BFF34F8FBD
S214400F20BFF36F8F16E00A9B099ADA600A9B5B6AEA
S214400F30002B0FD00A9B24331846434B9847034652
S214400F40002B07D0414B4FF080521A60BFF34F8FB3
S214400F50BFF36F8F3E4B9847012368E0019B002B01
S214400F6003D13B4B9847002361E00B9B002B05D1F8
S214400F7004AB1846374B984701230B93344B98479E
S214400F80354B98472D4B98470A9B5B6CB3F1FF3F18
S214400F9002D10A9B00225A640A9B9B6CB3F1FF3F26
S214400FA002D10A9B00229A64294B984701AA04ABB7
S214400FB011461846294B98470346002B31D10A98CC
S214400FC0274B98470346002B25D00A9B1B68002BCF
S214400FD008D11A4B98470A9B5B681846214B98479E
S214400FE01B4B98470A9B2433019A114618461E4BC2
S214400FF098470A981D4B98471D4B98470346002B29
S2144010007FF45EAF114B4FF080521A60BFF34F8FA4
S214401010BFF36F8F54E70A98144B9847144B984782
S2144010204EE70A98114B9847114B984700231846AD
S2144010300DB05DF804FB00BFF121400009064000FA
S214401040511140002D244000CD1C400004ED00E02E
S21440105065064000991D400069174000D91D4000B4
S2144010606912400025224000711B4000A11140003B
S2144010707D17400000B587B003900291019200238F
S2144010800593039B1B6C002B0DD1039B1B68002B09
S21440109050D1039B5B6818462B4B98470590039BA3
S2144010A000225A6046E0019B002B19D1039B9868AA
S2144010B0039B1B6C1A460299244B9847039B9A68DD
S2144010C0039B1B6C1A44039B9A60039B9A68039B82
S2144010D05B689A422ED3039B1A68039B9A6029E06A
S2144010E0039BD868039B1B6C1A460299174B98477C
S2144010F0039BDA68039B1B6C5B421A44039BDA60D3
S214401100039BDA68039B1B689A4207D2039B5A6884
S214401110039B1B6C5B421A44039BDA60019B022BC9
S21440112008D1039B9B6B002B04D0039B9B6B5A1EE2
S214401130039B9A63039B9B6B5A1C039B9A63059B7A
S214401140184607B05DF804FB19234000858440002C
S21440115000B583B001900091019B1B6C002B18D00A
S214401160019BDA68019B1B6C1A44019BDA60019B69
S214401170DA68019B5B689A4203D3019B1A68019B1D
S214401180DA60019BD968019B1B6C1A460098034B9A
S214401190984700BF03B05DF804FB00BF858440005D
S2144011A000B583B001902B4B984720E0019B5B6DC8
S2144011B0002B09D000210198274B98470346012B66
S2144011C010D1264B98470DE0019B5B6A002B13D04D
S2144011D0019B24331846224B98470346002B01D0E8
S2144011E01E4B9847019B9B6C5A1E019B9A64019B21
S2144011F09B6C002BDADC00E000BF019B4FF0FF3217
S2144012009A64184B9847134B984712E0019B1B690A
S214401210002B13D0019B10331846114B98470346BA
S214401220002B01D00D4B9847019B5B6C5A1E019BCF
S2144012305A64019B5B6C002BE8DC00E000BF019B1E
S2144012404FF0FF325A64074B984700BF03B05DF833
S21440125004FB00BF0906400089134000A91E400059
S214401260CD1C40006506400000B585B00190094B96
S2144012709847019B9B6B002B02D10123039301E00F
S21440128000230393044B9847039B184605B05DF82C
S21440129004FB00BF090640006506400000B585B067
S2144012A001900A4B9847019B9A6B019BDB6B9A42D5
S2144012B002D10123039301E000230393044B984794
S2144012C0039B184605B05DF804FB00BF09064000C6
S2144012D06506400084B0019000910023039314E01B
S2144012E00D4A039B52F83330002B0BD10A49039B1F
S2144012F0009A41F83320084A039BDB001344019AC6
S2144013005A6005E0039B01330393039B072BE7D901
S21440131000BF04B0704700BFECC5402000B587B0A2
S214401320039002910192039B0593134B9847059BAC
S2144013305B6CB3F1FF3F02D1059B00225A64059BCC
S2144013409B6CB3F1FF3F02D1059B00229A640B4B86
S2144013509847059B9B6B002B06D1059B2433019A2F
S21440136002991846064B98470598064B984700BF83
S21440137007B05DF804FB00BF090640006506400064
S214401380211C4000A111400000B587B0019000919B
S214401390019B5B6D049300230593049B002B0BD1AC
S2144013A04FF0800372B683F31188BFF36F8FBFF39D
S2144013B04F8F62B60393FEE7049B9A6B049BDB6BEE
S2144013C09A420BD34FF0800372B683F31188BFF373
S2144013D06F8FBFF34F8F62B60293FEE7049B9A6B04
S2144013E0049BDB6B9A421FD201AB009A19460498C5
S2144013F0104B98470590049B9B6CB3F1FF3F0ED172
S214401400049B5B6A002B0FD0049B243318460A4B80
S21440141098470346002B07D00123059304E0049B1E
S2144014209B6C5A1C049B9A64059B184607B05DF853
S21440143004FB00BF75104000CD1C400010B58CB0BA
S2144014400590049102931346ADF80E30059B002B91
S2144014500BD14FF0800372B683F31188BFF36F8FC2
S214401460BFF34F8F62B60893FEE70E9B042B0BD953
S2144014704FF0800372B683F31188BFF36F8FBFF3CC
S2144014804F8F62B60793FEE7BDF80E3010991846A8
S2144014904F4B98470A900A9B002B7CD00A9B1A6BAE
S2144014A0BDF80E106FF040430B449B001344099365
S2144014B0099B23F007030993099B03F00703002BBE
S2144014C00BD04FF0800372B683F31188BFF36F8F53
S2144014D0BFF34F8F62B60693FEE7BDF80E3000931B
S2144014E0119B0E9A04990A983A4CA047029A05997D
S2144014F00998394B984702460A9B1A600F9B002B67
S21440150002D00F9B0A9A1A60344B9847344B1B689C
S2144015100133334A1360334B1B68002B09D1314AE1
S2144015200A9B13602E4B1B68012B0FD12E4B9847FE
S2144015300CE02E4B1B68002B08D12A4B1B68DA6A3E
S2144015400E9B9A4202D8274A0A9B1360284B1B6878
S2144015500133274A1360264B1A680A9B1A640A9B73
S214401560DB6A01229A40234B1B681343214A1360CF
S2144015700A9BDA6A13469B0013449B001E4A1A4491
S2144015800A9B0433194610461C4B984701230B937D
S2144015901B4B984702E04FF0FF330B930B9B012BFE
S2144015A011D1124B1B68002B0DD00E4B1B68DA6A0C
S2144015B00E9B9A4207D2134B4FF080521A60BFF3ED
S2144015C04F8FBFF36F8F0B9B18460CB010BD00BFFC
S2144015D011214000E91E4000410440000906400039
S2144015E0D4C24020FCC14020951F4000E0C24020AD
S2144015F0F0C24020DCC2402000C240204F034000E2
S2144016006506400004ED00E000B587B00190002379
S2144016100593019B002B31D0204B1B68002B0BD031
S2144016204FF0800372B683F31188BFF36F8FBFF31A
S2144016304F8F62B60393FEE7194B9847194B1A68CB
S214401640019B13440493184B1B6804331846174BEE
S21440165098470346002B0BD1134B1B68DB6A0122CD
S21440166002FA03F3DA43124B1B681340104A136026
S2144016700498104B9847104B98470590059B002BB5
S21440168007D10E4B4FF080521A60BFF34F8FBFF317
S2144016906F8F00BF07B05DF804FB00BFF8C2402064
S2144016A069174000D8C24020FCC14020F5034000E6
S2144016B0DCC24020A12040007D17400004ED00E041
S2144016C010B588B0002303930023029300230193B0
S2144016D000230093002382221B491C481C4CA04731
S2144016E00790079B012B02D11A4B98470790079B00
S2144016F0012B17D14FF0800372B683F31188BFF3E6
S2144017006F8FBFF34F8F62B60693134B4FF0FF3287
S2144017101A60124B01221A60114B00221A60114BBC
S21440172098470EE0079B002B0BD14FF0800372B614
S21440173083F31188BFF36F8FBFF34F8F62B6059365
S214401740FEE700BF08B010BD24E54000B91E4000CB
S2144017503D1440004D244000F4C24020E0C24020EA
S214401760D8C2402021054000034B1B680133024A83
S214401770136000BF704700BFF8C2402000B585B078
S214401780002303933E4B1B68002B0BD14FF0800386
S21440179072B683F31188BFF36F8FBFF34F8F62B675
S2144017A00193FEE7374B9847354B1B68013B344A5D
S2144017B01360334B1B68002B5BD1334B1B68002BED
S2144017C057D02EE0314BDB68DB680293029B183320
S2144017D018462F4B9847029B043318462C4B984785
S2144017E0029BDB6A01229A402A4B1B681343294A14
S2144017F01360029BDA6A13469B0013449B00264AFA
S2144018001A44029B043319461046244B9847029BC1
S214401810DA6A234B1B68DB6A9A4202D3214B0122C9
S2144018201A601A4B1B68002BCCD11F4B1B68002B31
S21440183011D00CE01D4B98470346002B02D0194BA5
S21440184001221A60184B1B68013B174A1360164B5F
S2144018501B68002BEED1134B1B68012B09D10123CB
S2144018600393134B4FF080521A60BFF34F8FBFF372
S2144018706F8F104B9847039B184605B05DF804FBE6
S214401880F8C2402009064000D4C2402094C24020FE
S214401890F5034000DCC2402000C240204F03400019
S2144018A0FCC14020E8C24020E4C24020CD184000A1
S2144018B004ED00E06506400082B0034B1B680193D0
S2144018C0019B184602B07047D8C2402000B587B08A
S2144018D000230593554B1B68002B40F09580544BD6
S2144018E01B680133524A1360514B1B680493049B98
S2144018F0002B21D14F4B1B681B68002B0BD04FF0A1
S214401900800372B683F31188BFF36F8FBFF34F8F98
S21440191062B60093FEE7474B1B680393464B1B6833
S214401920444A1360444A039B1360444B1B6801338C
S214401930424A1360424B9847424B1B68049A9A426D
S2144019404DD33C4B1B681B68002B01D1012300E0A4
S2144019500023002B04D03B4B4FF0FF321A603EE092
S214401960344B1B68DB68DB680293029B5B68019321
S214401970049A019B9A4203D2324A019B13602EE09E
S214401980029B04331846304B9847029B9B6A002BB9
S21440199004D0029B183318462B4B9847029BDB6AB1
S2144019A001229A40294B1B681343284A1360029B26
S2144019B0DA6A13469B0013449B00254A1A44029B4E
S2144019C0043319461046234B9847029BDA6A224B4B
S2144019D01B68DB6A9A42B4D301230593B1E71E4BDA
S2144019E01B68DA6A1A4913469B0013449B000B4453
S2144019F01B68012B01D901230593184B1B68002B4C
S214401A0009D1174B984706E0144B1B680133134A1D
S214401A101360134B9847134B1B68002B01D00123D0
S214401A200593059B184607B05DF804FBF8C24020B6
S214401A30D8C240208CC2402090C24020ECC24020F9
S214401A40B1214000F4C24020F5034000DCC24020F3
S214401A5000C240204F034000FCC14020E4C240206A
S214401A60357C4000E8C2402000B589B03A4B1B6840
S214401A70002B03D0394B01221A6069E0374B002215
S214401A801A60374B1B681B6B07934FF0A5330693C2
S214401A90079B1A68069B9A4211D1079B04331A6823
S214401AA0069B9A420BD1079B08331A68069B9A42BC
S214401AB005D1079B0C331A68069B9A4208D0284BE0
S214401AC01A68274B1B68343319461046254B9847EF
S214401AD0254B1B680393039BB3FA83F38DF80B30B7
S214401AE09DF80B30C3F11F0305932049059A134612
S214401AF09B0013449B000B441B68002B0BD14FF0FC
S214401B00800372B683F31188BFF36F8FBFF34F8F96
S214401B1062B60193FEE7059A13469B0013449B006A
S214401B20124A13440493049B5B685A68049B5A60A9
S214401B30049B5A68049B08339A4204D1049B5B6812
S214401B405A68049B5A60049B5B68DB68044A1360CF
S214401B5000BF09B05DF804FBF8C24020E8C2402050
S214401B60FCC14020197C4000DCC2402000C240201E
S214401B7000B585B001900091019B002B0BD14FF032
S214401B80800372B683F31188BFF36F8FBFF34F8F16
S214401B9062B60293FEE71A4B1B6818331946019843
S214401BA0184B9847164B1B6804331846164B9847F5
S214401BB00346002B0BD1124B1B68DB6A012202FA4C
S214401BC003F3DA43114B1B681340104A1360009B23
S214401BD0B3F1FF3F07D10A4B1B68043319460C4844
S214401BE00C4B984707E00C4B1A68009B1344039332
S214401BF003980A4B984700BF05B05DF804FB00BF4A
S214401C00FCC140208D034000F5034000DCC240206C
S214401C10C0C240204F034000D8C24020A120400010
S214401C2000B587B0039002910192039B002B0BD125
S214401C304FF0800372B683F31188BFF36F8FBFF304
S214401C404F8F62B60493FEE7194B1B68183319464C
S214401C500398184B9847164B1B6804331846164B88
S214401C6098470346002B0BD1114B1B68DB6A0122B9
S214401C7002FA03F3DA43114B1B6813400F4A136012
S214401C80019B012B07D10A4B1B68043319460C48AD
S214401C90084B984707E00B4B1A68029B1344059382
S214401CA00598094B984700BF07B05DF804FB00BF96
S214401CB0FCC140204F034000F5034000DCC24020FA
S214401CC0C0C24020D8C24020A120400000B587B006
S214401CD00190019BDB68DB680493049B002B0BD1CF
S214401CE04FF0800372B683F31188BFF36F8FBFF354
S214401CF04F8F62B60393FEE7049B183318461E4B7D
S214401D0098471E4B1B68002B1CD1049B0433184677
S214401D10194B9847049BDB6A01229A40184B1B6874
S214401D201343174A1360049BDA6A13469B00134416
S214401D309B00144A1A44049B043319461046124B1F
S214401D40984705E0049B1833194610480E4B9847B1
S214401D50049BDA6A0E4B1B68DB6A9A4205D901235C
S214401D6005930C4B01221A6001E000230593059B66
S214401D70184607B05DF804FBF5034000F8C2402063
S214401D80DCC2402000C240204F03400094C24020A6
S214401D90FCC14020E8C2402084B00190019B002B4B
S214401DA00BD14FF0800372B683F31188BFF36F8F69
S214401DB0BFF34F8F62B60393FEE7054B1A68019B4D
S214401DC01A60044B1A68019B5A6000BF04B0704703
S214401DD0ECC24020D8C2402000B587B001900091A8
S214401DE0019B002B0BD14FF0800372B683F3118812
S214401DF0BFF36F8FBFF34F8F62B60393FEE7009B30
S214401E00002B0BD14FF0800372B683F31188BFF3DB
S214401E106F8FBFF34F8F62B60293FEE71D4B984716
S214401E201D4B1B680493009B1B68B3F1FF3F02D118
S214401E300023059326E0019B1A68184B1B689A42BC
S214401E4007D0019B5A68049B9A4202D80123059307
S214401E5018E0019B5B68049AD21A009B1B689A4262
S214401E600ED2009B1A68019B5968049BCB1A1A44F1
S214401E70009B1A6001980A4B98470023059301E09F
S214401E8001230593074B9847059B184607B05DF816
S214401E9004FB00BF09064000D8C24020ECC24020E8
S214401EA0991D400065064000024B01221A6000BFA3
S214401EB0704700BFE8C2402000B583B00190074B92
S214401EC09847074B1B68012BF9D9064B4FF08052B9
S214401ED01A60BFF34F8FBFF36F8FF0E715204000B7
S214401EE000C2402004ED00E000B587B003900291A8
S214401EF0019200930023059312E0029A059B134437
S214401F001978039A059B134434330A461A70029A8A
S214401F10059B13441B78002B06D0059B0133059385
S214401F20059B092BE9D900E000BF039B002283F8FC
S214401F303D20019B042B01D904230193039B019A66
S214401F40DA62039B019A9A64039B0022DA64039B3D
S214401F50043318460E4B9847039B183318460C4BD1
S214401F609847039B039A1A61019BC3F10502039BA2
S214401F709A61039B039A5A62039B00221A65039B4D
S214401F80002283F8542000BF07B05DF804FB00BF72
S214401F903F03400000B583B0002301930CE0019A54
S214401FA013469B0013449B00114A13441846114B9A
S214401FB09847019B01330193019B042BEFD90E48B0
S214401FC00C4B98470D480B4B98470D48094B984784
S214401FD00C48084B98470C48064B98470B4B064A0C
S214401FE01A600B4B054A1A6000BF03B05DF804FB4D
S214401FF000C240200903400064C2402078C240200E
S21440200094C24020A8C24020C0C240208CC240207B
S21440201090C2402000B583B028E0184B9847184B34
S2144020201B68002B0CBF01230023DBB20193154B2A
S2144020309847019B002B19D1134B9847104BDB68F0
S214402040DB680093009B04331846104B9847104BB0
S2144020501B68013B0E4A13600E4B1B68013B0D4A42
S21440206013600D4B984700980C4B9847094B1B68DC
S214402070002BD2D100BF03B05DF804FB69174000C7
S214402080A8C240207D17400009064000F5034000E6
S214402090D4C24020BCC24020650640008D2140008E
S2144020A000B583B00190144B1B68019A5A60134BDD
S2144020B01B68019A9A4209D2114B1A680E4B1B684C
S2144020C00433194610460F4B984710E00E4B1A68DB
S2144020D0094B1B680433194610460A4B98470B4B6E
S2144020E01B68019A9A4202D2084A019B136000BFBD
S2144020F003B05DF804FB00BFFCC14020D8C24020BE
S21440210090C240208D0340008CC24020F4C2402044
S21440211000B585B003460091ADF80630009B002B15
S21440212007D1BDF806309B001846154B9847034626
S21440213000E0009B0293029B002B0ED05820104BD1
S21440214098470390039B002B03D0039B029A1A6385
S21440215005E002980B4B984701E000230393039B4E
S214402160002B08D0039B186BBDF806309B001A4620
S214402170A521054B9847039B184605B05DF804FB20
S2144021800D084000AD084000B985400000B583B05A
S2144021900190019B1B6B1846044B98470198034BD4
S2144021A0984700BF03B05DF804FB00BFAD08400091
S2144021B082B00D4B1B681B68002B01D1012300E049
S2144021C00023002B04D0094B4FF0FF321A6008E082
S2144021D0054B1B68DB68DB680193019B5B68034A21
S2144021E0136000BF02B070478CC24020F4C240204B
S2144021F082B00A4B1B68002B02D10123019308E0F2
S214402200074B1B68002B02D10223019301E00023F9
S2144022100193019B184602B0704700BFE0C24020C1
S214402220F8C2402000B585B00190019B0393019B06
S214402230002B62D0039BDA6A324B1B68DB6A9A42F9
S2144022405BD2039B9B69002B06DB2E4B1B68DB6A2D
S214402250C3F10502039B9A61039B5969039BDA6AA3
S21440226013469B0013449B00274A1344994201D1CE
S214402270012300E00023002B3AD0039B043318468A
S214402280224B98470346002B15D1039BDA6A1E491A
S21440229013469B0013449B000B441B68002B0AD13B
S2144022A0039BDB6A012202FA03F3DA43184B1B68EE
S2144022B01340174A1360134B1B68DA6A039BDA62B3
S2144022C0039BDB6A01229A40114B1B681343104A5A
S2144022D01360039BDA6A13469B0013449B000A4A2A
S2144022E01A44039B0433194610460A4B984704E0A9
S2144022F0044B1B68DA6A039BDA6200BF05B05DF8E0
S21440230004FB00BFFCC1402000C24020F503400053
S214402310DCC240204F03400000B587B00190019BCF
S214402320049300230593019B002B70D03A4B1B6807
S214402330049A9A420BD04FF0800372B683F311880A
S214402340BFF36F8FBFF34F8F62B60393FEE7049BD6
S214402350DB6C002B0BD14FF0800372B683F31188F1
S214402360BFF36F8FBFF34F8F62B60293FEE7049BB7
S214402370DB6C5A1E049BDA64049BDA6A049B9B6CF3
S2144023809A4244D0049BDB6C002B40D1049B043320
S2144023901846224B98470346002B15D1049BDA6A11
S2144023A01F4913469B0013449B000B441B68002B9D
S2144023B00AD1049BDB6A012202FA03F3DA43194B83
S2144023C01B681340174A1360049B9A6C049BDA629E
S2144023D0049BDB6AC3F10502049B9A61049BDB6A9B
S2144023E001229A400F4B1B6813430E4A1360049B0E
S2144023F0DA6A13469B0013449B00094A1A44049B1E
S214402400043319461046084B984701230593059B0D
S214402410184607B05DF804FBFCC14020F5034000B9
S21440242000C24020DCC240204F034000064B1B68E1
S214402430002B04D0044B1B68DA6C0132DA64024B82
S2144024401B681846704700BFFCC1402010B586B0D8
S21440245000230593144B9847144B1B68002B0FD052
S2144024600023039300230293002301930423009345
S21440247000234FF482720E490E480F4CA047059039
S214402480059B002B0BD14FF0800372B683F3118867
S214402490BFF36F8FBFF34F8F62B60493FEE7059B83
S2144024A0184606B010BD00BF112A40002CC340207D
S2144024B03CE54000E92540003D14400010B58AB098
S2144024C0039002910192009300230993039B002BF3
S2144024D00BD14FF0800372B683F31188BFF36F8F32
S2144024E0BFF34F8F62B60893FEE7184B1B68002B6E
S2144024F027D0029B0493019B0593039B0693029B64
S214402500052B16DC124B98470346022B08D10F4B7F
S214402510186804A900230C9A0E4CA047099010E0B6
S2144025200A4B186804A9002300220A4CA0470990C9
S21440253007E0064B186804A90023009A064CA047FB
S2144025400990099B18460AB010BD00BF2CC3402016
S214402550F1214000810A4000D10C400010B588B0FF
S214402560039002911C4B1B68DB68DB680793079B54
S21440257004331846194B9847079BDB69012B23D138
S214402580079B9A69039BD118039B029A0798144CA1
S214402590A0470346012B17D1002300930023039A3C
S2144025A0002107980F4CA0470690069B002B0BD1A6
S2144025B04FF0800372B683F31188BFF36F8FBFF37B
S2144025C04F8F62B60593FEE7079B5B6A079898476E
S2144025D000BF08B010BD00BF24C34020F503400034
S2144025E045274000BD24400000B585B0019002ABB1
S2144025F01846054B98470390029B19460398034B91
S2144026009847034B9847F2E7C126400015264000FE
S214402610CD27400000B585B001900091204B9847EB
S21440262002AB18461F4B98470390029B002B30D1B5
S214402630009B002B0AD1019A039B9A4206D81A4B5C
S214402640984703990198194B984724E0009B002B24
S21440265008D0174B1B681B68002B0CBF01230023B8
S214402660DBB20093134B1868019A039BD31A009A67
S2144026701946114B98470C4B98470346002B0AD1F6
S2144026800E4B4FF080521A60BFF34F8FBFF36F8FE1
S21440269001E0054B984700BF05B05DF804FB00BF5E
S2144026A069174000012740007D1740005D25400027
S2144026B028C340202CC340201D13400004ED00E0FA
S2144026C084B001900D4B1B681B68002B0CBF012388
S2144026D00023DBB21A46019B1A60019B1B68002B45
S2144026E005D1064B1B68DB681B68039301E000239B
S2144026F00393039B184604B0704700BF24C3402092
S21440270000B585B001900C4B984703900B4B1B6867
S214402710039A9A4205D20A4B9847019B01221A60B7
S21440272002E0019B00221A60044A039B1360039B4D
S214402730184605B05DF804FBB918400030C3402089
S2144027404529400000B587B003900291019200935E
S21440275000230593039B029A5A60039B039A1A61CF
S214402760029A019B9A4212D8019A009BD21A039B66
S2144027709B699A4202D3012305931BE0104B1A68CB
S214402780039B0433194610460E4B984712E0019AB5
S214402790009B9A4206D2029A009B9A4202D3012399
S2144027A0059307E0084B1A68039B04331946104606
S2144027B0044B9847059B184607B05DF804FB00BFDE
S2144027C028C340208D03400024C3402010B58EB05F
S2144027D09BE0039B002B19DA03AB04330D930D9B50
S2144027E0002B0BD14FF0800372B683F31188BFF3F2
S2144027F06F8FBFF34F8F62B60993FEE70D9B1B6842
S2144028000D9A50680D9A926811469847039B002B84
S2144028107BDB059B0C930C9B5B69002B04D00C9BCD
S21440282004331846404B984702AB18463F4B9847F0
S2144028300B90039B092B67D801A252F823F000BFE8
S2144028406928400069284000692840000B2940005C
S214402850C7284000012940006928400069284000F8
S2144028600B294000C7284000049A0C9B9B69D1184E
S214402870049B0B9A0C982E4CA0470346012B44D140
S2144028800C9B5B6A0C9898470C9BDB69012B3CD1F0
S214402890049A0C9B9B691A44002300930023002152
S2144028A00C98244CA0470A900A9B002B2DD14FF041
S2144028B0800372B683F31188BFF36F8FBFF34F8FD9
S2144028C062B60893FEE7049A0C9B9A610C9B9B6940
S2144028D0002B0BD14FF0800372B683F31188BFF301
S2144028E06F8FBFF34F8F62B60793FEE70C9B9A69D4
S2144028F00B9BD1180B9B0B9A0C980D4CA04704E0F1
S2144029000C980D4B984700E000BF0C4B186803A985
S214402910002300220A4CA0470346002B7FF459AF01
S21440292000BF0EB010BD00BFF503400001274000B9
S21440293045274000BD244000AD0840002CC3402041
S2144029402D0E400010B588B046E02C4B1B68DB6867
S2144029501B680793294B1B68DB68DB680693069B5E
S21440296004331846264B9847069B5B6A069898475A
S214402970069BDB69012B2FD1069B9A69079B134464
S2144029800593059A079B9A420ED9069B059A5A606C
S214402990069B069A1A61194B1A68069B0433194619
S2144029A01046184B984717E0002300930023079AD9
S2144029B000210698144CA0470490049B002B0BD192
S2144029C04FF0800372B683F31188BFF36F8FBFF367
S2144029D04F8F62B60293FEE7084B1B681B68002BBE
S2144029E0B3D1064B1B680393084B1B68034A13601E
S2144029F0064A039B136000BF08B010BD24C34020A6
S214402A00F50340008D034000BD24400028C340200D
S214402A1000B583B01C4B98471C4B1B68002B2DD130
S214402A201B481C4B98471C481A4B98471B4B184A48
S214402A301A601B4B184A1A60002210210520194BB9
S214402A4098470246114B1A60104B1B68002B0BD15F
S214402A504FF0800372B683F31188BFF36F8FBFF3D6
S214402A604F8F62B60193FEE7084B1B68002B05D0DC
S214402A70064B1B680C4918460C4B98470C4B98471E
S214402A8000BF03B05DF804FB090640002CC340209D
S214402A90FCC240200903400010C3402024C340200D
S214402AA028C34020B509400044E54000D512400008
S214402AB06506400082B00190024A019B136000BF49
S214402AC002B0704734C3402082B003468DF80730CA
S214402AD00B468DF8063013468DF80530074B1A68BE
S214402AE09DF80730DB0119469DF806300B44134429
S214402AF09DF805201A7000BF02B0704734C34020CE
S214402B0082B003460A468DF8073013468DF80630E5
S214402B10064B1A689DF80730DB0119469DF80630CB
S214402B200B4413441B78184602B0704734C3402009
S214402B3010B584B00446084611461A4623468DF81A
S214402B40073003468DF806300B468DF805301346A1
S214402B508DF804309DF807209DF805301344802BEF
S214402B6008DD9DF80730C3F1FF2303F57F0380336C
S214402B708DF805309DF80630DB088DF80F309DF84F
S214402B8006209DF80F30DB00D31A012202FA03F329
S214402B908DF80E309DF80530002B00F08D809DF8A6
S214402BA00430012B27D0022B7ED0002B51D084E05E
S214402BB09DF807209DF805301344DAB29DF80F3093
S214402BC0114618463E4B984703468DF80D309DF803
S214402BD00D209DF80E3013438DF80D309DF80720DC
S214402BE09DF805301344D9B29DF80D209DF80F008E
S214402BF00023344CA0479DF805305A1E8DF805201A
S214402C00002BD5D159E09DF807209DF80530134498
S214402C10DAB29DF80F3011461846294B98470346BE
S214402C208DF80D309DF90E30DB435AB29DF90D30CC
S214402C3013405BB28DF80D309DF807209DF80530A7
S214402C401344D9B29DF80D209DF80F0000231D4C6B
S214402C50A0479DF805305A1E8DF80520002BD2D18E
S214402C602BE09DF807209DF805301344DAB29DF816
S214402C700F3011461846124B984703468DF80D30D4
S214402C809DF80D209DF80E3053408DF80D309DF880
S214402C9007209DF805301344D9B29DF80D209DF8C5
S214402CA00F000023074CA0479DF805305A1E8DF8AC
S214402CB00520002BD5D100E000BF04B010BD00BFFA
S214402CC0BD3140002131400010B582B00446084670
S214402CD011461A4623468DF8073003468DF80630CF
S214402CE00B468DF8053013468DF804309DF80430B9
S214402CF0002B16D00DE09DF806209DF804301344B6
S214402D00D9B29DF810309DF805209DF80700064C76
S214402D10A0479DF804305A1E8DF80420002BEAD1B7
S214402D2000E000BF02B010BD312B400000B587B0B8
S214402D30009303468DF807300B468DF80630134651
S214402D408DF805309DF806308DF810309DF805302A
S214402D508DF80F30009B1B7ADB088DF81330009BF4
S214402D601B7A03F00703DBB2002B04D09DF8133028
S214402D7001338DF813309DF813309AB2009B5B7A7E
S214402D809BB212FB03F39AB29DF807300099897AFA
S214402D905B1A9BB212FB03F3ADF80C30009B5A68EB
S214402DA0BDF80C3013440593009B5B7A8DF81230C7
S214402DB000238DF80E30009B1B7A8DF80B300023D5
S214402DC08DF8113028E09DF8113003F00703DBB290
S214402DD0002B06D1059B1B788DF80E30059B0133E2
S214402DE005939DF90E30002B07DA9DF80F109DF8DD
S214402DF0103001221846164B98479DF81030013384
S214402E008DF810309DF80E305B008DF80E309DF832
S214402E10113001338DF811309DF811209DF80B309C
S214402E209A42D0D39DF80F3001338DF80F309DF87D
S214402E3006308DF810309DF81230013B8DF8123078
S214402E409DF81230002BB3D100BF07B05DF804FBED
S214402E505930400010B584B0029303468DF80F30C9
S214402E600B468DF80E3013468DF80D30029B1A7ABD
S214402E70029B5C7A9DF80D109DF80E00002300938F
S214402E8023460A4CA047029B1B78002B00D009E043
S214402E909DF80D209DF80E109DF80F00029B044CE7
S214402EA0A04700BF00BF04B010BD00BFC92C400003
S214402EB02D2D400010B586B0039001930B468DF83B
S214402EC00B3013468DF80A309DF80B308DF81730CE
S214402ED0039B1B780A2B0DD19DF817308DF80B30CD
S214402EE0019B5A7A9DF80A301344DBB201338DF8C1
S214402EF00A3013E0039B1B780D2B0FD0039B1878EA
S214402F009DF80A209DF80B10019B094CA047019B99
S214402F101A7A9DF80B3013448DF80B30039B01331F
S214402F200393039B1B78002BD2D100BF06B010BD85
S214402F30552E400000B583B003468DF807309DF807
S214402F40073003F00F038DF807309DF8073063F025
S214402F504F03DBB21846034B984700BF03B05DF8FB
S214402F6004FB00BF2538400000B583B003468DF80B
S214402F7007309DF8073003F07F038DF807309DF843
S214402F8007301B09DBB243F01003DBB21846074B91
S214402F9098479DF8073003F00F03DBB21846034B03
S214402FA0984700BF03B05DF804FB00BF25384000DB
S214402FB000B583B003468DF807309DF8073003F020
S214402FC03F038DF807309DF8073043F04003DBB2EF
S214402FD01846034B984700BF03B05DF804FB00BF9C
S214402FE02538400010B582B01648174B9847174B07
S214402FF098470020164B984700238DF8073019E075
S21440300000238DF806300CE09DF806109DF807006A
S214403010012300220F4CA0479DF8063001338DF85F
S21440302006309DF90630002BEEDA9DF80730013366
S2144030308DF807309DF80730032BE1D900BF02B06A
S21440304010BD00BF38C34020B52A40007937400045
S214403050B12F40002131400010B584B003468DF8B2
S21440306007300B468DF8063013468DF805309DF92F
S2144030700730002B4CDB9DF806301F2B48D89DF8B8
S2144030800630DB088DF80E309DF806209DF80E3091
S214403090DB00D31A012202FA03F38DF80D309DF8B7
S2144030A007209DF80E30114618461B4B984703469E
S2144030B08DF80F309DF80530012B04D0022B15D02B
S2144030C0002B08D01AE09DF80F209DF80D301343D2
S2144030D08DF80F3012E09DF90D30DB435AB29DF962
S2144030E00F3013405BB28DF80F3007E09DF80F208D
S2144030F09DF80D3053408DF80F3000BF9DF80F20DF
S2144031009DF807109DF80E000023044CA04700E0F1
S21440311000BF04B010BD00BFBD31400021314000AB
S21440312010B582B00446084611461A4623468DF826
S214403130073003468DF806300B468DF805301346AB
S2144031408DF804309DF8043083F00103DBB2002B89
S2144031500DD09DF806209DF8073011461846124BB4
S214403160984703461A469DF80530934218D09DF876
S21440317005209DF806109DF8073018460B4B9847DB
S2144031809DF8073018460A4B98479DF80630184673
S214403190084B98479DF805301846074B984700E07F
S2144031A000BF02B010BD00BF012B4000C92A40003E
S2144031B0352F4000692F4000C938400000B583B025
S2144031C003460A468DF8073013468DF806309DF8BC
S2144031D006209DF8073011461846034B984703468D
S2144031E0184603B05DF804FB012B400082B0019006
S2144031F0019B072B25D801A252F823F01D32400030
S21440320023324000293240002F3240003332400003
S214403210373240003B3240003F3240004FF4FA43E2
S21440322010E04FF400430DE04FF400430AE0074B34
S21440323008E0074B06E0074B04E0064B02E0054B70
S21440324000E00023184602B0704700BF00093D006A
S21440325000127A00001BB70008B50620044B9847BA
S214403260024613469B0013449A001344184608BD72
S214403270ED31400008B5024B98470346184608BD56
S2144032805932400008B5034B984703465B0818463A
S21440329008BD00BF5932400088B00190019B07939B
S2144032A0079B0693069B5A09079B0593059B03F0CD
S2144032B01F03012101FA03F304920393049B029334
S2144032C0029A044B13445B021A46039B136000BFEA
S2144032D008B07047070720008CB001900091019B12
S2144032E00B93009B0A930B9B0993099B5A090B9BD4
S2144032F00893089B03F01F03012101FA03F307928A
S21440330006930A9B0593079B0493049A364B1344F3
S2144033105B020393059B03F00803002B03D0039B3B
S214403320069A5A6602E0039B069A1A66059B03F0C5
S2144033301003002B04D0039B069AC3F8942003E0A6
S214403340039B069AC3F89020059B03F02003002BAE
S21440335003D0039B069A1A6502E0039B069A5A65B9
S214403360059B03F0C003002B03D0039B069A1A620A
S21440337002E0039B069A5A62059B03F08003002BEB
S21440338004D0039B069AC3F8842003E0039B069A66
S214403390C3F88020059B03F00103002B06D0039B57
S2144033A01A6F069B1A43039B1A6706E0039B1A6F25
S2144033B0069BDB431A40039B1A67059B03F00203F8
S2144033C0002B06D0039B5A6F069B1A43039B5A67F3
S2144033D006E0039B5A6F069BDB431A40039B5A67E3
S2144033E000BF0CB0704700BF070720008CB00190AC
S2144033F00B468DF80330019B0B939DF803308DF8F8
S2144034002B300B9B0993099B0893089B5B090793FA
S214403410079A164B13445B0206939DF82B30012BFC
S21440342009D10B9B0593059B03F01F0301229A408D
S214403430069B1A610CE09DF82B30002B08D10B9BA5
S2144034400493049B03F01F0301229A40069B5A6193
S2144034500B9B0393039B03F01F0301229A40069B9A
S214403460C3F8A02000BF0CB0704700BF070720007D
S2144034708AB001900B468DF80330019B09939DF866
S21440348003308DF82330099B0793079B0693069BD2
S2144034905B090593059A0F4B13445B0204939DF812
S2144034A02330002B09D0099B0393039B03F01F0393
S2144034B001229A40049B1A6308E0099B0293029BF0
S2144034C003F01F0301229A40049B5A6300BF0AB0D0
S2144034D0704700BF0707200082B00190019B802202
S2144034E01A6000BF02B0704782B00190019B012273
S2144034F01A6000BF02B0704782B00190019B022262
S2144035001A6000BF02B0704782B00190019B5B68B2
S21440351043F00102019B5A6000BF02B0704782B080
S2144035200190019B5B6823F00202019B5A6000BF3A
S21440353002B0704782B00190019B5B6843F0100276
S214403540019B5A6000BF02B0704782B00190019B59
S2144035505B6823F08002019B5A6000BF02B0704750
S21440356000B583B00E4B984702460E4BA3FB022392
S2144035709A0C13469B0013445B0001930021512094
S214403580094B98470198094B984701215120064B13
S21440359098470198054B984700BF03B05DF804FB79
S2144035A07532400083DE1B437134400001004020EA
S2144035B008B5AF20014B984700BF08BD25384000EE
S2144035C000B583B003468DF807308120064B9847F8
S2144035D09DF807301846044B98479DF80730184624
S2144035E003B05DF804FB00BF2538400008B5A620B0
S2144035F0014B984700BF08BD2538400010B582B043
S21440360001215120454B984701212320434B9847A1
S21440361008215120424B984708212320404B984789
S2144036202320404B984751203E4B9847012123206A
S2144036303D4B9847012151203B4B984700234FF480
S21440364080024FF080513948394CA04700234FF450
S21440365000124FF080513548354CA04700234FF0BC
S21440366000724FF080513148314CA04700234FF450
S21440367080024FF080512D482D4CA04700234FF438
S21440368000124FF080512948294CA04700234FF0A4
S21440369000724FF080512548254CA0472548264BC0
S2144036A098472448254B98472248254B9847082258
S2144036B001212048234B9847002201211D48224BD8
S2144036C09847002201211B48204B98471948204B19
S2144036D098470022012117481E4B984715481E4B15
S2144036E0984714481D4B98471D4B98470346194624
S2144036F01C481D4B984703460193019BDBB21A4674
S21440370001210C48194B98470A48194B98470948D5
S214403710184B984700BF02B010BD00BFED334000C5
S214403720D9324000993240007134400000140E40B7
S2144037309D68400000800040F9344000D934400085
S214403740093540008D5A4000015A4000475A400013
S2144037501F354000295B40004B3540003535400062
S2144037608532400080841E00695B40009B5B4000C1
S214403770ED584000E934400008B5234B9847234BAA
S214403780984701215120224B9847A820214B984723
S2144037901F20204B9847D3201E4B984700201D4B98
S2144037A0984740201B4B9847A1201A4B9847C82063
S2144037B0184B9847DA20174B98470220154B9847E6
S2144037C08F20154B9847A420124B9847134B984789
S2144037D0D520104B984780200E4B98478D200D4B98
S2144037E0984714200B4B9847DB200A4B98474020BD
S2144037F0084B9847D920074B9847F120054B9847E8
S214403800074B984700BF08BDFD3540006135400076
S2144038107134400025384000C1354000ED35400049
S214403820B135400070B582B003468DF807300021B0
S21440383023201C4B984701211B481C4B98479DF85A
S214403840073099B2012301221748194CA047194B5B
S2144038509847034619464FF000020B461446A6000A
S21440386046EA93769D002B4634465B1844EB0204AA
S214403870DB1844EB0404194622460F4B4FF0000475
S214403880CD1842EB0406284631460C4C0C4A4FF005
S2144038900003A04703460C4618460A4B984700BF0D
S2144038A002B070BD71344000008000402559400091
S2144038B07559400075324000DF835A00FD80400055
S2144038C0E0835A000100402070B582B003468DF870
S2144038D00730012123201C4B984701211B481C4BD5
S2144038E098479DF8073099B2012301221748194C92
S2144038F0A047194B9847034619464FF000020B461F
S2144039001446A60046EA93769D002B4634465B183E
S21440391044EB0204DB1844EB0404194622460F4BE2
S2144039204FF00004CD1842EB0406284631460C4CB6
S2144039300C4A4FF00003A04703460C4618460A4B75
S214403940984700BF02B070BD713440000080004010
S214403950255940007559400075324000DF835A00B3
S214403960FD804000E0835A000100402082B0019074
S2144039700B46ADF8023000BF02B0704784B00190ED
S2144039800B468DF80330019B5B6803939DF803302C
S214403990FF2B04D1039B43F08003039308E0039B73
S2144039A023F08F0303939DF80330039A1343039346
S2144039B0019B039A5A6000BF04B0704700B583B0BD
S2144039C001900B46ADF80230BDF8023040F6FF726B
S2144039D0934205D0BDF80230194601980B4B9847E4
S2144039E0BDF8023040F6FF72934206D0BDF8023072
S2144039F0012202FA03F31A4601E040F6FF72019BE9
S214403A005A6100BF03B05DF804FB00BF6D3940004B
S214403A1000B583B001900B46ADF80230BDF80230D9
S214403A2040F6FF72934205D0BDF802301946019821
S214403A300B4B9847BDF8023040F6FF72934206D0D3
S214403A40BDF80230012202FA03F31A4601E040F6BE
S214403A50FF72019B9A6100BF03B05DF804FB00BF94
S214403A606D39400000B583B001900B46ADF802308A
S214403A70BDF8023019460198054B9847BDF802201C
S214403A80019B5A66019B9B6E184603B05DF804FB8B
S214403A906D39400000B583B001900B46ADF802305A
S214403AA01346ADF80030BDF8023019460198084B71
S214403AB09847BDF80220019B5A66BDF80030C3F314
S214403AC00B02019BDA6600BF03B05DF804FB00BF43
S214403AD06D39400082B00190019B072B25D801A28A
S214403AE052F823F0053B40000B3B4000113B4000A2
S214403AF0173B40001B3B40001F3B4000233B400021
S214403B00273B40004FF4FA4310E04FF400430DE0EB
S214403B104FF400430AE0074B08E0074B06E0074B2C
S214403B2004E0064B02E0054B00E00023184602B0D6
S214403B30704700BF00093D0000127A00001BB70026
S214403B4008B50620044B9847024613469B0013448C
S214403B509A001344184608BDD53A400008B5024BB3
S214403B6098470346184608BD413B400000B58DB017
S214403B70039002910192009306AB1846154B984766
S214403B8006AB19460398144B9847FF210398134BEE
S214403B90984705AB1846124B984700238DF81530CA
S214403BA0019B9BB205AA194603980E4B9847019B6A
S214403BB09BB24FF40072194603980B4B9847019BF3
S214403BC09BB219460398094B984700BF0DB05DF865
S214403BD004FB00BF41554000DD5540007D394000A4
S214403BE0A155400065544000953A4000BD3940001C
S214403BF010B50C200F4B984710200E4B98470C20C2
S214403C000C4B984710200B4B98470B480B4B98474C
S214403C100B480A4B9847002300221D210848094CB0
S214403C20A0470023012228210348064CA04700BF96
S214403C3010BD00BF116F400000400640895840004C
S214403C4000C003406D3B400008B500210248034BCE
S214403C5098470346184608BD00C00340653A4000F2
S214403C6008B501210248034B98470346184608BD4D
S214403C7000400640653A400070B500212648274B74
S214403C80984701212648274B984700234FF40022A7
S214403C904FF060512448254CA04700234FF4005273
S214403CA04FF040512048214CA04700234FF400627B
S214403CB04FF020511E481D4CA04700234FF0804235
S214403CC04FF020511A48194CA0471A4B98470346C4
S214403CD019464FF000020B461446A60046EA937675
S214403CE09D002B4634465B1844EB020441F22B7190
S214403CF04FF000025D1844EB0206284631460E4C53
S214403D0041F22C724FF00003A04703460C4618467B
S214403D100A4B984700BF70BD00C00340BD39400005
S214403D2000400640113A400000120E409D68400098
S214403D3000140E405D3B4000FD80400001004020E6
S214403D4070B500212648274B984701212648274B27
S214403D50984700234FF080424FF060512448254C4E
S214403D60A04700234FF400624FF040512048214CBA
S214403D70A04700234FF400224FF020511E481D4C10
S214403D80A04700234FF400524FF020511A48194CD8
S214403D90A0471A4B9847034619464FF000020B4679
S214403DA01446A60046EA93769D002B4634465B189A
S214403DB044EB020441F22B714FF000025D1844EBD5
S214403DC00206284631460E4C41F22C724FF0000354
S214403DD0A04703460C4618460A4B984700BF70BD9E
S214403DE000C00340113A400000400640BD39400044
S214403DF000140E409D68400000120E405D3B40009F
S214403E00FD8040000100402070B586B00190002340
S214403E104FF400224FF040514F48504CA0470023EB
S214403E204FF400624FF060514D484C4CA047002381
S214403E304FF080424FF020514948484CA04700235D
S214403E404FF400524FF020514348444CA0470021C5
S214403E504448454B984701214448434B9847444B78
S214403E609847034619464FF000020B461446A600F4
S214403E7046EA93769D002B4634465B1844EB020494
S214403E8041F22B714FF000025D1844EB02062846C3
S214403E903146384C41F22C724FF00003A04703469F
S214403EA00C461846344B9847344B98470490344B4E
S214403EB098470390334B9847304B98470290039B64
S214403EC007EE903AF8EEE77ACDED057A049B07EEDA
S214403ED0903AB8EEE77ADDED056AC6EE877ACDED24
S214403EE0057ADDED057AB7EE007A77EEC77ACDED46
S214403EF0057A029B07EE903AF8EEE77A9DED057A52
S214403F0067EE277ACDED057A019B07EE903AF8EEFC
S214403F10E77A9DED057A67EE277ACDED057A9DED39
S214403F20057ADFED196AC7EE267ACDED057ADDED26
S214403F30057A9FED167AF4EEC77AF1EE10FA02D5BE
S214403F404FF089430593DDED057AFDEEE77A17EEEF
S214403F50903A184606B070BD00120E409D6840006C
S214403F6000140E4000C00340BD39400000400640EB
S214403F705D3B4000FD80400001004020613C400029
S214403F80493C4000793C4000000080440000C84264
S214403F9008B5024B98470346184608BD493C4000C2
S214403FA008B5024B98470346184608BD613C40009A
S214403FB086B001900B468DF803300123049337E01A
S214403FC0049B9B00019A13441B680393049B8DF843
S214403FD0173013E09DF817309B00019A1A449DF85D
S214403FE017106FF040430B449B0001990B441B682D
S214403FF013609DF81730013B8DF817309DF8173049
S214404000002B0BD09DF817206FF0404313449B00C5
S214404010019A13441A68039B9A42DBDC9DF81730DA
S2144040209B00019A1344039A1A60049B013304933D
S2144040309DF80320049B9A42C2DC00BF06B070473E
S2144040402DE91048C9B003AB186002AB196001AB4C
S2144040501A6000238DF817312E4B9847002347935C
S21440406021E02D4B984703464FF000042B494FF074
S214404070000213EB010B44EB020C58466146284CF9
S214404080284A4FF00003A04703460C461846264BE6
S2144040909847264B9847014605AB479A43F8221067
S2144040A0479B01334793479B3F2BDADD05AB4021C7
S2144040B018461F4B984705ABD3F8802003AB1B68C8
S2144040C01A601C4B98470023469309E01A4B9847C2
S2144040D0014605AB469A43F82210469B0133469369
S2144040E0469B3F2BF2DD05AB40211846104B9847C8
S2144040F005ABD3F8802002AB1B681A604FF496706D
S2144041000E4B9847024601AB1B681A6000BF49B089
S214404110BDE81088793C40005D3B4000DF835A0094
S214404120FD804000E0835A0001004020913F40005F
S214404130B13F4000413D4000A13F4000093E4000A5
S21440414086B00390029101920093039BA3F2EE2265
S21440415013461B019B1A1B011E4A82FB03121A447C
S214404160D212DB17D31A0593059BF02B01DDF02303
S2144041700593059B002B01DA00230593009B059AC7
S2144041801A60029BA3F51B7213469B0013449B01C7
S214404190114A82FB03121A44D212DB17D31A049335
S2144041A0049BB3F5A07F02DD4FF4A0730493049BF9
S2144041B0002B01DA00230493069B049A1A60019BA5
S2144041C0B3F5487F01DA012300E00023184606B025
S2144041D0704700BF35679ACD1FC297BC10B588B0F0
S2144041E00390029105AA06A907AB1846064B9847C6
S2144041F007980699059A029B0093039B034CA04799
S2144042000346184608B010BD4140400041414000BA
S21440421082B00190019B072B25D801A252F823F0CB
S21440422041424000474240004D4240005342400019
S214404230574240005B4240005F42400063424000BD
S2144042404FF4FA4310E04FF400430DE04FF40043C0
S2144042500AE0074B08E0074B06E0074B04E0064B36
S21440426002E0054B00E00023184602B0704700BF4E
S21440427000093D0000127A00001BB70008B5062072
S214404280044B9847024613469B0013449A00134437
S214404290184608BD1142400008B5034B98470346F0
S2144042A05B08184608BD00BF7D42400082B00190C2
S2144042B0019B80221A6000BF02B0704782B0019016
S2144042C0019B5B6843F00102019B5A6000BF02B04D
S2144042D0704782B00190019B5B6823F00202019B0D
S2144042E05A6000BF02B0704782B00190019B5B6885
S2144042F023F00402019B5A6000BF02B0704782B0B0
S2144043000190019B5B6803F00403002B01D001235E
S21440431000E00023184602B0704782B00190019B2F
S2144043205B6843F01002019B5A6000BF02B07047C2
S21440433082B00190019B5B6823F08002019B5A602B
S21440434000BF02B07047000000B583B001900198EE
S2144043500F4B984701980F4B984701980E4B98473C
S21440436001980E4B984701980D4B984700210198AD
S2144043700C4B984701980C4B984701980B4B984725
S214404380002101980A4B984700BF03B05DF804FB34
S214404390ED584000AD424000BD4240001B43400047
S2144043A03143400025594000D3424000E942400096
S2144043B04F59400010B586B00390029100931346C3
S2144043C08DF80730214B9847034619460098204BF6
S2144043D098470346ADF81630029B19680023002222
S2144043E003981C4CA047029B1B680822194603985A
S2144043F0194B9847029B1B68BDF81620D2B2194647
S2144044000398164B9847029B1B6808221946039848
S214404410134B9847029B19689DF807305B08DBB240
S2144044201A4603980F4B9847029B19689DF8073029
S21440443003F00103002B0CBF01230023DBB21A4616
S2144044400398094B984700BF06B010BD99424000FC
S214404450695B4000F55B4000295B40009B5B400089
S2144044608D5A4000015A4000475A400000B583B07C
S214404470019000910198114B98470346002B0AD0B3
S214404480009B1B680F2B14D8009B1B68194601988D
S2144044900B4B98470DE0009B1B68032B09D8009BED
S2144044A01B68012202FA03F3DB4319460198044BCA
S2144044B0984700BF03B05DF804FB00BFFF424000D2
S2144044C02559400082B00190019B072B25D801A2B8
S2144044D052F823F0F5444000FB44400001454000BC
S2144044E0074540000B4540000F454000134540003F
S2144044F0174540004FF4FA4310E04FF400430DE0F8
S2144045004FF400430AE0074B08E0074B06E0074B32
S21440451004E0064B02E0054B00E00023184602B0DC
S214404520704700BF00093D0000127A00001BB7002C
S21440453008B50620044B9847024613469B00134492
S2144045409A001344184608BDC544400008B5024BBF
S21440455098470346184608BD314540008AB001904A
S2144045600B468DF80330019B09939DF803308DF878
S2144045702330099B0793079B0693069B5B0905938D
S214404580059A0F4B13445B0204939DF82330002B8F
S21440459009D0099B0393039B03F01F0301229A4013
S2144045A0049B1A6308E0099B0293029B03F01F03D7
S2144045B001229A40049B5A6300BF0AB0704700BF6E
S2144045C00707200082B00190019B01221A6000BFBD
S2144045D002B0704782B001900B46ADF80230BDF88D
S2144045E00220019BDA6000BF02B0704782B00190A3
S2144045F0019B1B6903F40073002B01D0012300E0EC
S2144046000023184602B0704700B583B001900B46B1
S2144046108DF803309DF803309BB219460198034B42
S214404620984700BF03B05DF804FB00BFD545400087
S21440463000B585B003468DF8073000210620124BA2
S214404640984700217B20104B98479DF807308DF8FF
S2144046500F300E480E4B98470346002BF9D09DF876
S2144046600F30194609480B4B98470848084B98475F
S2144046700346002BF9D001210620034B984700BF84
S21440468005B05DF804FB00BF5D454000008000407B
S214404690ED4540000946400000B585B003468DF81C
S2144046A007302A205E4B98475E4BB3F900301B120A
S2144046B01BB2DBB28DF80E305B485C4B9847034626
S2144046C0002BF9D09DF80E3019465748584B98475E
S2144046D0544BB3F90030DBB28DF80F305248534B91
S2144046E098470346002BF9D09DF80F3019464E48A0
S2144046F04F4B98479DF80730002B25D04D4BB3F9CC
S21440470000301B121BB2DBB28DF80C304648474BCC
S21440471098470346002BF9D09DF80C30194642487E
S214404720434B9847434BB3F90030DBB28DF80D301E
S2144047303D483E4B98470346002BF9D09DF80D3038
S214404740194639483A4B98473748384B98470346B6
S214404750002BF9D001217B20374B98472B20304B3C
S2144047609847364BB3F900301B121BB2DBB28DF8BC
S2144047700A302D482D4B98470346002BF9D09DF81C
S2144047800A30194628482A4B98472C4BB3F9003034
S214404790DBB28DF80B302448244B98470346002B59
S2144047A0F9D09DF80B3019461F48214B98479DF885
S2144047B00730002B25D0224BB3F900301B121BB21A
S2144047C0DBB28DF808301848184B98470346002B44
S2144047D0F9D09DF8083019461348154B9847184BA2
S2144047E0B3F90030DBB28DF809300F480F4B9847CD
S2144047F00346002BF9D09DF8093019460A480C4B61
S21440480098470948094B98470346002BF9D00121A1
S2144048107B20094B984700BF05B05DF804FB00BFFE
S2144048203146400038C5402000800040ED454000FD
S214404830094640003CC540205D4540003AC5402002
S2144048403EC5402000B583B003460A46ADF8063064
S2144048501346ADF80430074ABDF806301380064AC2
S214404860BDF8043013800020044B984700BF03B0C7
S2144048705DF804FB38C540203AC5402099464000C4
S21440488000B583B003460A46ADF806301346ADF889
S2144048900430074ABDF806301380064ABDF8043097
S2144048A013800120044B984700BF03B05DF804FB1B
S2144048B03CC540203EC540209946400010B582B0D9
S2144048C00446084611461A462346ADF806300346C7
S2144048D0ADF804300B46ADF802301346ADF8003064
S2144048E00A4ABDF806301380094ABDF804301380E2
S2144048F0084ABDF802301380074ABDF800301380DE
S2144049000120064B984700BF02B010BD38C5402076
S2144049103AC540203CC540203EC540209946400010
S21440492000B585B001900091019B03932C201E4B4F
S214404930984726E0039B1B88DBB28DF80A301B485D
S2144049401B4B98470346002BF9D09DF80A30194672
S2144049501648184B9847039B1B881B0A9BB2DBB232
S2144049608DF80B301148124B98470346002BF9D070
S2144049709DF80B3019460D480E4B9847039B023363
S2144049800393009B5A1E0092002BD3D10748084B36
S21440499098470346002BF9D001217B20064B9847C9
S2144049A000BF05B05DF804FB314640000080004083
S2144049B0ED454000094640005D4540002DE9F04188
S2144049C086B000238DF81730002304930323039307
S2144049D02C482D4B98479DF8172003A9049B00931D
S2144049E02A4B28482A4CA047002203212548294B19
S2144049F098472448284B984703AB19462148274BED
S214404A009847F0211F48264B984701211D48244BC4
S214404A109847244B9847034619464FF000020B46EA
S214404A2014464FEA840848EA93789F003B4644463B
S214404A305B1844EB0204260146EA13761D01ED1A84
S214404A4066EB04066B1946EB06041D4626462946C9
S214404A50324641F22B734FF00004CD1842EB040669
S214404A6028463146104C41F22C724FF00003A047C6
S214404A7003460C4618460D4B984700BF06B0BDE8A7
S214404A80F08100BF0080004049434000005A620267
S214404A90B54340008D5A4000C54540006D44400037
S214404AA0094640004D454000FD8040000100402042
S214404AB010B586B0CD20A84B984739238DF80430E2
S214404AC0A648A74B98470346002BF9D09DF80430DC
S214404AD01946A248A34B98472C238DF805309F488B
S214404AE09F4B98470346002BF9D09DF80530194652
S214404AF09A489C4B984700238DF806309748984B29
S214404B0098470346002BF9D09DF80630194693483F
S214404B10944B984734238DF807309048904B9847ED
S214404B200346002BF9D09DF8073019468B488D4B2D
S214404B30984702238DF808308848894B98470346A3
S214404B40002BF9D09DF8083019468448854B984785
S214404B508248834B98470346002BF9D001217B209F
S214404B60814B9847CF207C4B984700238DF80930DF
S214404B707A487B4B98470346002BF9D09DF809307E
S214404B8019467648774B9847AA238DF80A307348DB
S214404B90734B98470346002BF9D09DF80A301946C8
S214404BA06E48704B9847B0238DF80B306B486C4B73
S214404BB098470346002BF9D09DF80B3019466748B6
S214404BC0684B98476548664B98470346002BF9D094
S214404BD001217B20644B9847F7205F4B9847302352
S214404BE08DF80C305D485E4B98470346002BF9D055
S214404BF09DF80C30194659485A4B98475748584BD9
S214404C0098470346002BF9D001217B20564B984706
S214404C10C020514B984725238DF80D304F48504BB8
S214404C2098470346002BF9D09DF80D3019464B485F
S214404C304C4B984749484A4B98470346002BF9D077
S214404C4001217B20484B9847C120434B984711236E
S214404C508DF80E304148424B98470346002BF9D01A
S214404C609DF80E3019463D483E4B98473B483C4BD6
S214404C7098470346002BF9D001217B203A4B9847B2
S214404C80C520354B98475C238DF80F303348344B5E
S214404C9098470346002BF9D09DF80F3019462F4809
S214404CA0304B98474C238DF810302C482C4B984767
S214404CB00346002BF9D09DF8103019462748294B5B
S214404CC098472648264B98470346002BF9D00121A3
S214404CD07B20254B9847C7201F4B984794238DF839
S214404CE011301E481E4B98470346002BF9D09DF8BE
S214404CF01130194619481B4B98471848184B984787
S214404D000346002BF9D001217B20174B9847E8201B
S214404D10114B984785238DF812301048104B984712
S214404D200346002BF9D09DF8123019460B480D4B20
S214404D30984701238DF813300848094B9847034697
S214404D40002BF9D09DF8133019460448054B984778
S214404D5078238DF8143009E031464000008000404A
S214404D60ED454000094640005D4540003448354B1F
S214404D7098470346002BF9D09DF814301946304822
S214404D80314B98472E482F4B98470346002BF9D077
S214404D9001217B202D4B9847EA202D4B9847002336
S214404DA08DF815302648274B98470346002BF9D0F8
S214404DB09DF8153019462248234B984700238DF816
S214404DC016301F481F4B98470346002BF9D09DF8D6
S214404DD0163019461A481C4B98471948194B98479D
S214404DE00346002BF9D001217B20184B98473A20E8
S214404DF0174B984755238DF817301148114B984755
S214404E000346002BF9D09DF8173019460C480E4B38
S214404E1098470B480B4B98470346002BF9D0012187
S214404E207B200A4B984700200A4B9847F0234FF4C4
S214404E30A07200210020084CA04700BF06B010BD5D
S214404E4000800040ED454000094640005D4540007A
S214404E503146400081504000BD4840002DE9F041B9
S214404E601120224B984701217B20214B9847214B0C
S214404E709847034619464FF000020B4614464FEA41
S214404E80840848EA93789F003B4644465B1844EBC8
S214404E900204260146EA13761D01ED1A66EB040667
S214404EA06B1946EB06041D4626462946324641F215
S214404EB02B734FF00004CD1842EB040628463146CB
S214404EC00D4C41F22C724FF00003A04703460C46AF
S214404ED018460A4B98472920044B984701217B20C7
S214404EE0034B984700BFBDE8F08100BF3146400005
S214404EF05D4540004D454000FD804000010040209B
S214404F002DE9F04F83B0012118204F4B98474F4B67
S214404F109847034619464FF000020B461446A00039
S214404F200190019840EA937001909B000093DDE960
S214404F3000345B1844EB0204DB1844EB04041946C7
S214404F40224641F22B734FF0000411EB030B42EB69
S214404F50040C584661463E4C41F22C724FF000031A
S214404F60A04703460C4618463A4B9847002118205F
S214404F70354B9847354B9847034619464FF0000245
S214404F800B4614464FEA840A4AEA937A4FEA830964
S214404F904B4654465B1844EB0204DB1844EB0404CF
S214404FA01946224641F22B734FF0000411EB0309D9
S214404FB042EB040A48465146254C41F22C724FF0CB
S214404FC00003A04703460C461846224B984701214B
S214404FD018201D4B98471D4B9847034619464FF0DF
S214404FE000020B4614464FEA840848EA93789F002E
S214404FF03B4644465B1844EB0204260146EA1376D9
S2144050001D01ED1A66EB04066B1946EB06041D46B9
S21440501026462946324641F22B734FF00004CD18FF
S21440502042EB040628463146094C41F22C724FF0BA
S2144050300003A04703460C461846064B984700BF59
S21440504003B0BDE8F08F00BF5D4540004D454000D1
S214405050FD8040000100402008B5054B9847054BB1
S2144050609847054B9847054B984700BF08BD00BF7B
S214405070BD494000014F40005D4E4000B14A4000EF
S21440508000B585B003468DF8073048238DF80F30BD
S2144050909DF8073083F005038DF807309DF80730FC
S2144050A003F00103002B05D09DF80F3023F040039A
S2144050B08DF80F309DF8073003F00203002B05D023
S2144050C09DF80F3063F07F038DF80F309DF8073062
S2144050D003F00403002B05D09DF80F3043F0200367
S2144050E08DF80F303620104B98479DF80F308DF8CE
S2144050F00E300E480E4B98470346002BF9D09DF8CD
S2144051000E30194609480B4B98470848084B9847B5
S2144051100346002BF9D001217B20074B984700BF60
S21440512005B05DF804FB00BF3146400000800040FB
S214405130ED454000094640005D45400082B00346CC
S2144051408DF8073007499DF907305B099DF8072021
S21440515002F01F02012000FA02F241F8232000BFAD
S21440516002B0704700E100E082B003468DF8073099
S21440517008499DF907305B099DF8072002F01F0299
S214405180012000FA02F2603341F8232000BF02B04B
S214405190704700BF00E100E082B0034600918DF802
S2144051A007309DF90730002B0CDA0D499DF8073083
S2144051B003F00F03043B009AD2B25201D2B20B4422
S2144051C01A7609E007499DF90730009AD2B2520193
S2144051D0D2B20B4483F8002300BF02B0704700BF32
S2144051E000ED00E000E100E082B0EFF310830193B1
S2144051F0019B002B0CBF01230023DBB2009372B649
S214405200BFF35F8F034B00221A70009B184602B014
S214405210704700BF1C00402082B00190019B002BCD
S21440522014BF01230023DBB2184602B070470000CB
S21440523000B583B001900198074B98470346002B72
S21440524005D0064B01221A70BFF35F8F62B600BFCF
S21440525003B05DF804FB00BF195240001C0040201C
S21440526082B001900B46ADF8023000BF02B07047E6
S21440527082B00190019B1B6B184602B0704782B00B
S2144052800190019BDB6A184602B0704700B585B0B6
S21440529003468DF807309DF807300B4AD35CFF2B4A
S2144052A000D1FEE7094B984703909DF80730064A21
S2144052B0D25C0132D1B2044AD1540398044B984789
S2144052C000BF05B05DF804FB2CC64020E951400005
S2144052D03152400082B00190019B072B25D801A295
S2144052E052F823F0055340000B5340001153400042
S2144052F0175340001B5340001F53400023534000A9
S214405300275340004FF4FA4310E04FF400430DE0BB
S2144053104FF400430AE0074B08E0074B06E0074B14
S21440532004E0064B02E0054B00E00023184602B0BE
S214405330704700BF00093D0000127A00001BB7000E
S21440534008B50620044B9847024613469B00134474
S2144053509A001344184608BDD552400008B5024B83
S21440536098470346184608BD4153400082B0019016
S214405370019B074A934201D1012306E0019B054A5F
S214405380934201D1002300E00023184602B0704744
S2144053900040064000C0034082B00190019B074A8F
S2144053A0934201D1282306E0019B054A934201D14E
S2144053B01D2300E01D23184602B0704700400640FB
S2144053C000C0034084B00190009100230393009BEB
S2144053D0DB7C002B02D04FF0004200E00022009B16
S2144053E05968009B9B68B1FBF3F3013B1B029BB2E1
S2144053F01A43009B1B7C1B0603F070631A43009BFA
S2144054005B7C1B0703F040531A43009BDB68134347
S21440541043F400030393019B039A5A60009B1B7D51
S214405420002B02D04FF0807200E00022009B1B68E9
S2144054301A43009B5B7D002B02D04FF0007300E0C8
S21440544000231A43019B9A60009B9B7D1B0203F43A
S214405450407343F00C02019BC3F8942000BF04B095
S2144054607047000000B587B003900B460192ADF838
S2144054700A30BDF80A3019460398204B9847002357
S2144054800593039B1B6E0593BDF80A30012202FA72
S21440549003F3DB43059A13400593019B1B78002BCF
S2144054A005D0BDF80A30012202FA03F300E00023DB
S2144054B0059A13430593039B059A1A66039B5B6DF7
S2144054C00593BDF80A305B00032202FA03F3DB4380
S2144054D0059A13400593019B5B781A46BDF80A303F
S2144054E05B0002FA03F31A46059B13430593039B9E
S2144054F0059A5A6500BF07B05DF804FB615240004C
S21440550084B00190009100230393009B1B78002BEE
S21440551001D0012300E00023009A527813430393FE
S214405520019B039A1A67009B5B881A46009B9B88E0
S2144055301B041A43019B5A6700BF04B07047000023
S21440554000B583B00190019B00221A60124B984729
S2144055500246019B5A60019B104A9A60019B4FF499
S2144055608022DA60019B02221A74019B01225A743F
S214405570019B01229A74019B0022DA74019B01224E
S2144055801A75019B01225A75019B01229A7500BF2C
S21440559003B05DF804FB00BF5D534000808D5B00A8
S2144055A082B00190019B00221A70019B01225A7022
S2144055B000BF02B0704782B00190019B00221A7073
S2144055C0019B20225A70019BFF225A80019B40F685
S2144055D0FF729A8000BF02B07047000000B585B0E9
S2144055E00190009101981D4B9847034603F0807345
S2144055F0B3F1807F01D119232CE0019B01221A6070
S21440560000990198164B9847019B164A93420DD134
S2144056100023039307E0144A039B002142F823101B
S214405620039B01330393039B0F2BF4D9019B0F4A33
S21440563093420ED10023039308E00B4A039B10339A
S214405640002142F82310039B01330393039B0F2B47
S214405650F3D90023184605B05DF804FB71524000AC
S214405660C553400000C0034034C6402000400640BA
S21440567000B587B00390029101928DF803300398ED
S214405680184B984705901849059B1A01029B1344EE
S214405690019A41F82320059B002B0CD11D20134B6B
S2144056A098479DF8033019461D20114B98471D20FA
S2144056B0104B98470EE0059B012B0BD128200B4B37
S2144056C098479DF8033019462820094B98472820CC
S2144056D0084B984702990398074B984700BF07B076
S2144056E05DF804FB6D53400034C6402069514000CD
S2144056F0995140003D514000FD56400082B0019017
S2144057000091009B174A934203D1019B154A5A6267
S21440571026E0009B0B2B0FD8009B0B2B04D1019B44
S2144057204FF400625A621BE00122009B02FA03F328
S2144057301A46019B5A6213E0009B0E2B08D8009B2A
S2144057400C33012202FA03F31A46019B5A6207E021
S214405750009B0F33012202FA03F31A46019B5A625A
S21440576002B07047FF0F004700B583B00346009174
S2144057708DF807309DF807300A491A01009B1344FC
S21440578051F82330002B08D09DF8073005491A0100
S214405790009B134451F82330984700BF03B05DF890
S2144057A004FB00BF34C6402010B586B00190019877
S2144057B0274B984704460198264B98470346234074
S2144057C003930198244B984704900023059339E0AF
S2144057D0059B0B2B0FD80122059B02FA03F31A46B2
S2144057E0039B1340002B2AD0049BDBB20599184636
S2144057F01A4B984723E0059B0E2B10D8059B0C337D
S214405800012202FA03F31A46039B1340002B16D0DC
S214405810049BDBB205991846104B98470FE0059B52
S2144058200F33012202FA03F31A46039B1340002B60
S21440583005D0049BDBB205991846084B9847059B54
S21440584001330593059B0F2BC2D900BF06B010BD90
S214405850715240007F5240006D53400069574000EF
S21440586008B50248024B984700BF08BD00C0034039
S214405870A957400008B50248024B984700BF08BDEC
S21440588000400640A957400000B585B001900198F9
S214405890064B984703900398054B98470220054BC4
S2144058A0984700BF05B05DF804FB00BF9953400021
S2144058B0116F40008D52400082B00190019B5B68A2
